{
  "contractName": "RandomMock",
  "abi": [
    {
      "inputs": [
        {
          "internalType": "uint256",
          "name": "num",
          "type": "uint256"
        }
      ],
      "name": "latestRoundData",
      "outputs": [
        {
          "internalType": "uint256",
          "name": "roundId",
          "type": "uint256"
        },
        {
          "internalType": "uint256",
          "name": "winner",
          "type": "uint256"
        },
        {
          "internalType": "uint256",
          "name": "timestamp",
          "type": "uint256"
        }
      ],
      "stateMutability": "nonpayable",
      "type": "function"
    }
  ],
  "bytecode": "0x608060405234801561001057600080fd5b5061011a806100206000396000f3fe6080604052348015600f57600080fd5b506004361060285760003560e01c80639bbf750114602d575b600080fd5b603c6038366004608a565b605b565b6040805193845260208401929092529082015260600160405180910390f35b60008054819081908180606c8360b6565b9091555050600054607d85603e60a2565b9095909450429350915050565b600060208284031215609b57600080fd5b5035919050565b60008282101560b15760b160ce565b500390565b600060001982141560c75760c760ce565b5060010190565b634e487b7160e01b600052601160045260246000fdfea2646970667358221220843c374b9e0438557c2d118f89ea41317744dcfa3c349bf38981f5453251d20d64736f6c63430008060033",
  "immutableReferences": {},
  "source": "//SPDX-License-Identifier: MIT\r\npragma solidity ^0.8.5;\r\n\r\ncontract RandomMock{\r\n    uint256 currentRoundId;\r\n    function latestRoundData(uint num) public returns(\r\n        uint256 roundId, \r\n        uint256 winner, \r\n        uint256 timestamp\r\n        ) \r\n    {\r\n        currentRoundId++;\r\n        return (currentRoundId, 62 - num, block.timestamp);\r\n    }\r\n\r\n}",
  "sourcePath": "C:\\Users\\shiva\\OneDrive\\Desktop\\RouletteIndividual\\contracts\\RandomMock.sol",
  "compiler": {
    "name": "solc",
    "version": "0.8.6+commit.11564f7e.Emscripten.clang"
  },
  "schemaVersion": "3.4.4",
  "updatedAt": "2022-02-28T09:56:04.745Z",
  "devdoc": {
    "kind": "dev",
    "methods": {},
    "version": 1
  },
  "userdoc": {
    "kind": "user",
    "methods": {},
    "version": 1
  }
}