{
  "contractName": "RouletteV2",
  "abi": [
    {
      "anonymous": false,
      "inputs": [
        {
          "indexed": false,
          "internalType": "address",
          "name": "previousAdmin",
          "type": "address"
        },
        {
          "indexed": false,
          "internalType": "address",
          "name": "newAdmin",
          "type": "address"
        }
      ],
      "name": "AdminChanged",
      "type": "event"
    },
    {
      "anonymous": false,
      "inputs": [
        {
          "indexed": true,
          "internalType": "address",
          "name": "beacon",
          "type": "address"
        }
      ],
      "name": "BeaconUpgraded",
      "type": "event"
    },
    {
      "anonymous": false,
      "inputs": [
        {
          "components": [
            {
              "internalType": "uint8",
              "name": "betType",
              "type": "uint8"
            },
            {
              "internalType": "uint8",
              "name": "differentiator",
              "type": "uint8"
            },
            {
              "internalType": "uint8[]",
              "name": "numbers",
              "type": "uint8[]"
            },
            {
              "internalType": "uint256",
              "name": "amount",
              "type": "uint256"
            }
          ],
          "indexed": false,
          "internalType": "struct Roulette.Bet[]",
          "name": "bets",
          "type": "tuple[]"
        },
        {
          "indexed": true,
          "internalType": "address",
          "name": "sender",
          "type": "address"
        },
        {
          "indexed": true,
          "internalType": "uint256",
          "name": "currentEpoch",
          "type": "uint256"
        },
        {
          "indexed": false,
          "internalType": "uint256",
          "name": "totalAmount",
          "type": "uint256"
        }
      ],
      "name": "Bets",
      "type": "event"
    },
    {
      "anonymous": false,
      "inputs": [
        {
          "indexed": true,
          "internalType": "address",
          "name": "sender",
          "type": "address"
        },
        {
          "indexed": true,
          "internalType": "uint256",
          "name": "currentEpoch",
          "type": "uint256"
        },
        {
          "indexed": false,
          "internalType": "uint256",
          "name": "amount",
          "type": "uint256"
        }
      ],
      "name": "Claim",
      "type": "event"
    },
    {
      "anonymous": false,
      "inputs": [
        {
          "indexed": false,
          "internalType": "uint256",
          "name": "amount",
          "type": "uint256"
        }
      ],
      "name": "ClaimTreasury",
      "type": "event"
    },
    {
      "anonymous": false,
      "inputs": [
        {
          "indexed": true,
          "internalType": "address",
          "name": "user",
          "type": "address"
        },
        {
          "indexed": true,
          "internalType": "uint256",
          "name": "epoch",
          "type": "uint256"
        },
        {
          "indexed": false,
          "internalType": "uint256",
          "name": "timestamp",
          "type": "uint256"
        },
        {
          "indexed": false,
          "internalType": "uint256",
          "name": "winningNumber",
          "type": "uint256"
        }
      ],
      "name": "EndRound",
      "type": "event"
    },
    {
      "anonymous": false,
      "inputs": [
        {
          "indexed": true,
          "internalType": "uint256",
          "name": "epoch",
          "type": "uint256"
        },
        {
          "indexed": true,
          "internalType": "uint8[]",
          "name": "betType",
          "type": "uint8[]"
        },
        {
          "indexed": false,
          "internalType": "uint256[]",
          "name": "maxBetAmount",
          "type": "uint256[]"
        }
      ],
      "name": "MaxBetAmountUpdated",
      "type": "event"
    },
    {
      "anonymous": false,
      "inputs": [
        {
          "indexed": true,
          "internalType": "uint256",
          "name": "epoch",
          "type": "uint256"
        },
        {
          "indexed": true,
          "internalType": "uint8[]",
          "name": "betType",
          "type": "uint8[]"
        },
        {
          "indexed": false,
          "internalType": "uint256[]",
          "name": "minBetAmount",
          "type": "uint256[]"
        }
      ],
      "name": "MinBetAmountUpdated",
      "type": "event"
    },
    {
      "anonymous": false,
      "inputs": [
        {
          "indexed": false,
          "internalType": "address",
          "name": "to",
          "type": "address"
        },
        {
          "indexed": false,
          "internalType": "uint256",
          "name": "amount",
          "type": "uint256"
        }
      ],
      "name": "NativeWithdrawal",
      "type": "event"
    },
    {
      "anonymous": false,
      "inputs": [
        {
          "indexed": false,
          "internalType": "address",
          "name": "previousOperator",
          "type": "address"
        },
        {
          "indexed": false,
          "internalType": "address",
          "name": "newOperator",
          "type": "address"
        }
      ],
      "name": "OperatorChanged",
      "type": "event"
    },
    {
      "anonymous": false,
      "inputs": [
        {
          "indexed": false,
          "internalType": "uint256",
          "name": "currentEpoch",
          "type": "uint256"
        },
        {
          "indexed": false,
          "internalType": "uint256",
          "name": "_randomNumUpdateAllowance",
          "type": "uint256"
        }
      ],
      "name": "OracleUpdateAllowanceUpdated",
      "type": "event"
    },
    {
      "anonymous": false,
      "inputs": [
        {
          "indexed": true,
          "internalType": "address",
          "name": "previousOwner",
          "type": "address"
        },
        {
          "indexed": true,
          "internalType": "address",
          "name": "newOwner",
          "type": "address"
        }
      ],
      "name": "OwnershipTransferred",
      "type": "event"
    },
    {
      "anonymous": false,
      "inputs": [
        {
          "indexed": false,
          "internalType": "uint256",
          "name": "epoch",
          "type": "uint256"
        }
      ],
      "name": "Pause",
      "type": "event"
    },
    {
      "anonymous": false,
      "inputs": [
        {
          "indexed": false,
          "internalType": "address",
          "name": "account",
          "type": "address"
        }
      ],
      "name": "Paused",
      "type": "event"
    },
    {
      "anonymous": false,
      "inputs": [
        {
          "indexed": true,
          "internalType": "uint256",
          "name": "epoch",
          "type": "uint256"
        },
        {
          "indexed": true,
          "internalType": "uint8[]",
          "name": "betType",
          "type": "uint8[]"
        },
        {
          "indexed": false,
          "internalType": "uint8[]",
          "name": "payout",
          "type": "uint8[]"
        }
      ],
      "name": "PayoutUpdated",
      "type": "event"
    },
    {
      "anonymous": false,
      "inputs": [
        {
          "indexed": true,
          "internalType": "address",
          "name": "user",
          "type": "address"
        },
        {
          "indexed": true,
          "internalType": "uint256",
          "name": "epoch",
          "type": "uint256"
        },
        {
          "indexed": false,
          "internalType": "uint256",
          "name": "rewardAmount",
          "type": "uint256"
        },
        {
          "indexed": false,
          "internalType": "uint256",
          "name": "treasuryAmount",
          "type": "uint256"
        }
      ],
      "name": "RewardsCalculated",
      "type": "event"
    },
    {
      "anonymous": false,
      "inputs": [
        {
          "indexed": true,
          "internalType": "address",
          "name": "user",
          "type": "address"
        },
        {
          "indexed": true,
          "internalType": "uint256",
          "name": "epoch",
          "type": "uint256"
        },
        {
          "indexed": false,
          "internalType": "uint256",
          "name": "timestamp",
          "type": "uint256"
        }
      ],
      "name": "StartRound",
      "type": "event"
    },
    {
      "anonymous": false,
      "inputs": [
        {
          "indexed": false,
          "internalType": "uint256",
          "name": "epoch",
          "type": "uint256"
        },
        {
          "indexed": false,
          "internalType": "address",
          "name": "token",
          "type": "address"
        },
        {
          "indexed": false,
          "internalType": "uint8",
          "name": "decimals",
          "type": "uint8"
        }
      ],
      "name": "TokenStakedUpdated",
      "type": "event"
    },
    {
      "anonymous": false,
      "inputs": [
        {
          "indexed": false,
          "internalType": "address",
          "name": "to",
          "type": "address"
        },
        {
          "indexed": false,
          "internalType": "address",
          "name": "token",
          "type": "address"
        },
        {
          "indexed": false,
          "internalType": "uint256",
          "name": "amount",
          "type": "uint256"
        }
      ],
      "name": "TokenWithdrawal",
      "type": "event"
    },
    {
      "anonymous": false,
      "inputs": [
        {
          "indexed": false,
          "internalType": "uint256",
          "name": "epoch",
          "type": "uint256"
        }
      ],
      "name": "Unpause",
      "type": "event"
    },
    {
      "anonymous": false,
      "inputs": [
        {
          "indexed": false,
          "internalType": "address",
          "name": "account",
          "type": "address"
        }
      ],
      "name": "Unpaused",
      "type": "event"
    },
    {
      "anonymous": false,
      "inputs": [
        {
          "indexed": true,
          "internalType": "address",
          "name": "implementation",
          "type": "address"
        }
      ],
      "name": "Upgraded",
      "type": "event"
    },
    {
      "inputs": [],
      "name": "admin",
      "outputs": [
        {
          "internalType": "address",
          "name": "",
          "type": "address"
        }
      ],
      "stateMutability": "view",
      "type": "function"
    },
    {
      "inputs": [
        {
          "internalType": "address",
          "name": "token",
          "type": "address"
        },
        {
          "internalType": "uint8",
          "name": "_decimals",
          "type": "uint8"
        }
      ],
      "name": "changeTokenStaked",
      "outputs": [],
      "stateMutability": "nonpayable",
      "type": "function"
    },
    {
      "inputs": [
        {
          "internalType": "uint256",
          "name": "epoch",
          "type": "uint256"
        }
      ],
      "name": "claim",
      "outputs": [],
      "stateMutability": "nonpayable",
      "type": "function"
    },
    {
      "inputs": [],
      "name": "claimTreasury",
      "outputs": [],
      "stateMutability": "nonpayable",
      "type": "function"
    },
    {
      "inputs": [
        {
          "internalType": "uint256",
          "name": "epoch",
          "type": "uint256"
        },
        {
          "internalType": "address",
          "name": "user",
          "type": "address"
        }
      ],
      "name": "claimable",
      "outputs": [
        {
          "internalType": "bool",
          "name": "",
          "type": "bool"
        },
        {
          "internalType": "uint256",
          "name": "",
          "type": "uint256"
        }
      ],
      "stateMutability": "view",
      "type": "function"
    },
    {
      "inputs": [],
      "name": "counter",
      "outputs": [
        {
          "internalType": "uint256",
          "name": "",
          "type": "uint256"
        }
      ],
      "stateMutability": "view",
      "type": "function"
    },
    {
      "inputs": [
        {
          "internalType": "address",
          "name": "",
          "type": "address"
        }
      ],
      "name": "currentUserEpoch",
      "outputs": [
        {
          "internalType": "uint256",
          "name": "",
          "type": "uint256"
        }
      ],
      "stateMutability": "view",
      "type": "function"
    },
    {
      "inputs": [
        {
          "components": [
            {
              "internalType": "uint8",
              "name": "betType",
              "type": "uint8"
            },
            {
              "internalType": "uint8",
              "name": "differentiator",
              "type": "uint8"
            },
            {
              "internalType": "uint8[]",
              "name": "numbers",
              "type": "uint8[]"
            },
            {
              "internalType": "uint256",
              "name": "amount",
              "type": "uint256"
            }
          ],
          "internalType": "struct Roulette.Bet[]",
          "name": "bets",
          "type": "tuple[]"
        }
      ],
      "name": "executeRound",
      "outputs": [],
      "stateMutability": "nonpayable",
      "type": "function"
    },
    {
      "inputs": [],
      "name": "getPayouts",
      "outputs": [
        {
          "internalType": "uint8[]",
          "name": "",
          "type": "uint8[]"
        }
      ],
      "stateMutability": "view",
      "type": "function"
    },
    {
      "inputs": [],
      "name": "getRandomNumberOracleAdd",
      "outputs": [
        {
          "internalType": "address",
          "name": "",
          "type": "address"
        }
      ],
      "stateMutability": "view",
      "type": "function"
    },
    {
      "inputs": [],
      "name": "getRandomRoundId",
      "outputs": [
        {
          "internalType": "uint256",
          "name": "",
          "type": "uint256"
        }
      ],
      "stateMutability": "view",
      "type": "function"
    },
    {
      "inputs": [
        {
          "internalType": "bytes",
          "name": "data",
          "type": "bytes"
        },
        {
          "internalType": "address[]",
          "name": "_ownerAdminOperator",
          "type": "address[]"
        }
      ],
      "name": "initialize",
      "outputs": [],
      "stateMutability": "nonpayable",
      "type": "function"
    },
    {
      "inputs": [
        {
          "internalType": "uint8",
          "name": "",
          "type": "uint8"
        }
      ],
      "name": "maxBetAmount",
      "outputs": [
        {
          "internalType": "uint256",
          "name": "",
          "type": "uint256"
        }
      ],
      "stateMutability": "view",
      "type": "function"
    },
    {
      "inputs": [
        {
          "internalType": "uint8",
          "name": "",
          "type": "uint8"
        }
      ],
      "name": "minBetAmount",
      "outputs": [
        {
          "internalType": "uint256",
          "name": "",
          "type": "uint256"
        }
      ],
      "stateMutability": "view",
      "type": "function"
    },
    {
      "inputs": [
        {
          "internalType": "uint8",
          "name": "",
          "type": "uint8"
        }
      ],
      "name": "numbersByKindOfBet",
      "outputs": [
        {
          "internalType": "uint8",
          "name": "",
          "type": "uint8"
        }
      ],
      "stateMutability": "view",
      "type": "function"
    },
    {
      "inputs": [],
      "name": "operator",
      "outputs": [
        {
          "internalType": "address",
          "name": "",
          "type": "address"
        }
      ],
      "stateMutability": "view",
      "type": "function"
    },
    {
      "inputs": [],
      "name": "owner",
      "outputs": [
        {
          "internalType": "address",
          "name": "",
          "type": "address"
        }
      ],
      "stateMutability": "view",
      "type": "function"
    },
    {
      "inputs": [],
      "name": "pause",
      "outputs": [
        {
          "internalType": "bool",
          "name": "",
          "type": "bool"
        }
      ],
      "stateMutability": "nonpayable",
      "type": "function"
    },
    {
      "inputs": [],
      "name": "paused",
      "outputs": [
        {
          "internalType": "bool",
          "name": "",
          "type": "bool"
        }
      ],
      "stateMutability": "view",
      "type": "function"
    },
    {
      "inputs": [
        {
          "internalType": "uint8",
          "name": "",
          "type": "uint8"
        }
      ],
      "name": "payout",
      "outputs": [
        {
          "internalType": "uint8",
          "name": "",
          "type": "uint8"
        }
      ],
      "stateMutability": "view",
      "type": "function"
    },
    {
      "inputs": [],
      "name": "proxiableUUID",
      "outputs": [
        {
          "internalType": "bytes32",
          "name": "",
          "type": "bytes32"
        }
      ],
      "stateMutability": "view",
      "type": "function"
    },
    {
      "inputs": [],
      "name": "randomNumUpdateAllowance",
      "outputs": [
        {
          "internalType": "uint256",
          "name": "",
          "type": "uint256"
        }
      ],
      "stateMutability": "view",
      "type": "function"
    },
    {
      "inputs": [
        {
          "internalType": "address",
          "name": "user",
          "type": "address"
        },
        {
          "internalType": "uint256",
          "name": "epoch",
          "type": "uint256"
        }
      ],
      "name": "refundable",
      "outputs": [
        {
          "internalType": "bool",
          "name": "",
          "type": "bool"
        }
      ],
      "stateMutability": "view",
      "type": "function"
    },
    {
      "inputs": [],
      "name": "renounceOwnership",
      "outputs": [],
      "stateMutability": "nonpayable",
      "type": "function"
    },
    {
      "inputs": [
        {
          "internalType": "address",
          "name": "",
          "type": "address"
        },
        {
          "internalType": "uint256",
          "name": "",
          "type": "uint256"
        }
      ],
      "name": "rounds",
      "outputs": [
        {
          "internalType": "uint256",
          "name": "epoch",
          "type": "uint256"
        },
        {
          "internalType": "uint256",
          "name": "totalAmountBet",
          "type": "uint256"
        },
        {
          "internalType": "uint256",
          "name": "totalRewardAmount",
          "type": "uint256"
        },
        {
          "internalType": "uint256",
          "name": "treasuryCollections",
          "type": "uint256"
        },
        {
          "internalType": "bool",
          "name": "oracleCalled",
          "type": "bool"
        },
        {
          "internalType": "uint8",
          "name": "winningNumber",
          "type": "uint8"
        },
        {
          "internalType": "bool",
          "name": "claimed",
          "type": "bool"
        }
      ],
      "stateMutability": "view",
      "type": "function"
    },
    {
      "inputs": [
        {
          "internalType": "address",
          "name": "_admin",
          "type": "address"
        }
      ],
      "name": "setAdmin",
      "outputs": [],
      "stateMutability": "nonpayable",
      "type": "function"
    },
    {
      "inputs": [
        {
          "internalType": "uint8[]",
          "name": "betType",
          "type": "uint8[]"
        },
        {
          "internalType": "uint256[]",
          "name": "_maxBetAmount",
          "type": "uint256[]"
        }
      ],
      "name": "setMaxBetAmount",
      "outputs": [],
      "stateMutability": "nonpayable",
      "type": "function"
    },
    {
      "inputs": [
        {
          "internalType": "uint8[]",
          "name": "betType",
          "type": "uint8[]"
        },
        {
          "internalType": "uint256[]",
          "name": "_minBetAmount",
          "type": "uint256[]"
        }
      ],
      "name": "setMinBetAmount",
      "outputs": [],
      "stateMutability": "nonpayable",
      "type": "function"
    },
    {
      "inputs": [
        {
          "internalType": "address",
          "name": "_operator",
          "type": "address"
        }
      ],
      "name": "setOperator",
      "outputs": [],
      "stateMutability": "nonpayable",
      "type": "function"
    },
    {
      "inputs": [
        {
          "internalType": "uint8[]",
          "name": "betType",
          "type": "uint8[]"
        },
        {
          "internalType": "uint8[]",
          "name": "_payout",
          "type": "uint8[]"
        }
      ],
      "name": "setPayout",
      "outputs": [],
      "stateMutability": "nonpayable",
      "type": "function"
    },
    {
      "inputs": [
        {
          "internalType": "uint256",
          "name": "_randomNumUpdateAllowance",
          "type": "uint256"
        }
      ],
      "name": "setRandomNumUpdateAllowance",
      "outputs": [],
      "stateMutability": "nonpayable",
      "type": "function"
    },
    {
      "inputs": [
        {
          "internalType": "address",
          "name": "_randomGenerator",
          "type": "address"
        }
      ],
      "name": "setRandomNumberOracleAdd",
      "outputs": [],
      "stateMutability": "nonpayable",
      "type": "function"
    },
    {
      "inputs": [],
      "name": "tokenDecimals",
      "outputs": [
        {
          "internalType": "uint8",
          "name": "",
          "type": "uint8"
        }
      ],
      "stateMutability": "view",
      "type": "function"
    },
    {
      "inputs": [],
      "name": "tokenStaked",
      "outputs": [
        {
          "internalType": "address",
          "name": "",
          "type": "address"
        }
      ],
      "stateMutability": "view",
      "type": "function"
    },
    {
      "inputs": [
        {
          "internalType": "address",
          "name": "newOwner",
          "type": "address"
        }
      ],
      "name": "transferOwnership",
      "outputs": [],
      "stateMutability": "nonpayable",
      "type": "function"
    },
    {
      "inputs": [],
      "name": "treasuryAmount",
      "outputs": [
        {
          "internalType": "uint256",
          "name": "",
          "type": "uint256"
        }
      ],
      "stateMutability": "view",
      "type": "function"
    },
    {
      "inputs": [],
      "name": "unpause",
      "outputs": [
        {
          "internalType": "bool",
          "name": "",
          "type": "bool"
        }
      ],
      "stateMutability": "nonpayable",
      "type": "function"
    },
    {
      "inputs": [
        {
          "internalType": "address",
          "name": "newImplementation",
          "type": "address"
        }
      ],
      "name": "upgradeTo",
      "outputs": [],
      "stateMutability": "nonpayable",
      "type": "function"
    },
    {
      "inputs": [
        {
          "internalType": "address",
          "name": "newImplementation",
          "type": "address"
        },
        {
          "internalType": "bytes",
          "name": "data",
          "type": "bytes"
        }
      ],
      "name": "upgradeToAndCall",
      "outputs": [],
      "stateMutability": "payable",
      "type": "function"
    },
    {
      "inputs": [],
      "name": "withdrawAllNative",
      "outputs": [],
      "stateMutability": "nonpayable",
      "type": "function"
    },
    {
      "inputs": [
        {
          "internalType": "address",
          "name": "token",
          "type": "address"
        }
      ],
      "name": "withdrawAllTokens",
      "outputs": [],
      "stateMutability": "nonpayable",
      "type": "function"
    },
    {
      "inputs": [
        {
          "internalType": "uint256",
          "name": "amount",
          "type": "uint256"
        }
      ],
      "name": "withdrawNative",
      "outputs": [],
      "stateMutability": "nonpayable",
      "type": "function"
    },
    {
      "inputs": [
        {
          "internalType": "address",
          "name": "token",
          "type": "address"
        },
        {
          "internalType": "uint256",
          "name": "amount",
          "type": "uint256"
        }
      ],
      "name": "withdrawToken",
      "outputs": [],
      "stateMutability": "nonpayable",
      "type": "function"
    }
  ],
  "bytecode": "0x60a06040523060601b60805234801561001757600080fd5b5060805160601c6149e761005260003960008181610b0301528181610b4301528181610fae01528181610fee015261108101526149e76000f3fe60806040526004361061025b5760003560e01c80636bf90c8411610144578063a0c7f71c116100b6578063c16b4d711161007a578063c16b4d71146107bf578063dc2932e8146107df578063de6553eb146107ff578063f2fde38b1461081f578063f6d03e3c1461083f578063f851a4401461085657600080fd5b8063a0c7f71c14610672578063a878aee6146106a9578063b3ab15fb146106c9578063b59c46fb146106e9578063bdc047591461079157600080fd5b806384276d811161010857806384276d81146105b15780638456cb59146105d15780638a17edfa146105e65780638aee7286146106145780638da5cb5b146106345780639e281a981461065257600080fd5b80636bf90c841461051a578063704b6c021461053c578063715018a61461055c57806379c223a9146105715780637cff8d1c1461059157600080fd5b80633b97e856116101dd578063518f49d8116101a1578063518f49d81461047457806352d1902d14610495578063570ca735146104aa5780635c975abb146104cb57806361bc221a146104e357806369171ede146104fa57600080fd5b80633b97e856146103f55780633d8df3af146104175780633f4ba83a14610437578063482fe0241461044c5780634f1ef2861461046157600080fd5b80632550150b116102245780632550150b146103405780633659cfe614610370578063368acb0914610390578063379607f5146103a75780633948f4c9146103c757600080fd5b80623bdc7414610260578063149611f414610277578063153f2b4b1461029f5780631f3043eb146102e2578063213b14021461030f575b600080fd5b34801561026c57600080fd5b50610275610877565b005b34801561028357600080fd5b5061028c61094d565b6040519081526020015b60405180910390f35b3480156102ab57600080fd5b506102d06102ba3660046142a8565b61012d6020526000908152604090205460ff1681565b60405160ff9091168152602001610296565b3480156102ee57600080fd5b506102f7610a01565b6040516001600160a01b039091168152602001610296565b34801561031b57600080fd5b506102d061032a3660046142a8565b6101306020526000908152604090205460ff1681565b34801561034c57600080fd5b5061036061035b366004613eaf565b610ab2565b6040519015158152602001610296565b34801561037c57600080fd5b5061027561038b366004613ded565b610af8565b34801561039c57600080fd5b5061028c6101365481565b3480156103b357600080fd5b506102756103c236600461423c565b610bd8565b3480156103d357600080fd5b5061028c6103e23660046142a8565b61012f6020526000908152604090205481565b34801561040157600080fd5b5061013a546102d090600160a01b900460ff1681565b34801561042357600080fd5b5061027561043236600461423c565b610e42565b34801561044357600080fd5b50610360610ead565b34801561045857600080fd5b50610275610f6e565b61027561046f366004613e5f565b610fa3565b34801561048057600080fd5b5061013a546102f7906001600160a01b031681565b3480156104a157600080fd5b5061028c611074565b3480156104b657600080fd5b50610134546102f7906001600160a01b031681565b3480156104d757600080fd5b5060335460ff16610360565b3480156104ef57600080fd5b5061028c6101355481565b34801561050657600080fd5b5061027561051536600461402a565b611127565b34801561052657600080fd5b5061052f61134a565b6040516102969190614435565b34801561054857600080fd5b50610275610557366004613ded565b6113d6565b34801561056857600080fd5b50610275611489565b34801561057d57600080fd5b5061027561058c366004614181565b6114bf565b34801561059d57600080fd5b506102756105ac366004613f14565b611c70565b3480156105bd57600080fd5b506102756105cc36600461423c565b611d89565b3480156105dd57600080fd5b50610360611f0b565b3480156105f257600080fd5b5061028c610601366004613ded565b6101326020526000908152604090205481565b34801561062057600080fd5b5061027561062f36600461402a565b611f98565b34801561064057600080fd5b5060fb546001600160a01b03166102f7565b34801561065e57600080fd5b5061027561066d366004613eaf565b6121af565b34801561067e57600080fd5b5061069261068d366004614255565b61231b565b604080519215158352602083019190915201610296565b3480156106b557600080fd5b506102756106c4366004613ded565b6123fa565b3480156106d557600080fd5b506102756106e4366004613ded565b6124ab565b3480156106f557600080fd5b50610755610704366004613eaf565b610131602090815260009283526040808420909152908252902080546002820154600383015460048401546005909401549293919290919060ff808216916101008104821691620100009091041687565b6040805197885260208801969096529486019390935260608501919091521515608084015260ff1660a0830152151560c082015260e001610296565b34801561079d57600080fd5b5061028c6107ac3660046142a8565b61012e6020526000908152604090205481565b3480156107cb57600080fd5b506102756107da366004613ded565b612557565b3480156107eb57600080fd5b506102756107fa366004613edb565b6125cb565b34801561080b57600080fd5b5061027561081a3660046140ec565b612672565b34801561082b57600080fd5b5061027561083a366004613ded565b6127e2565b34801561084b57600080fd5b5061028c6101385481565b34801561086257600080fd5b50610133546102f7906001600160a01b031681565b610133546001600160a01b031633146108ab5760405162461bcd60e51b81526004016108a290614634565b60405180910390fd5b600061013654116108f55760405162461bcd60e51b815260206004820152601460248201527316995c9bc81d1c99585cdd5c9e48185b5bdd5b9d60621b60448201526064016108a2565b6101368054600090915561013354610916906001600160a01b03168261287a565b6040518181527f609175abb7f12481e4f200d1ef4fc834e6caac3d9eadba42d664352f6d0932ca906020015b60405180910390a150565b600061096160fb546001600160a01b031690565b6001600160a01b0316336001600160a01b0316148061098b5750610133546001600160a01b031633145b806109a15750610134546001600160a01b031633145b6109f95760405162461bcd60e51b8152602060048201526024808201527f526f756c657474653a20556e617574686f72697a65642066756e6374696f6e2060448201526318d85b1b60e21b60648201526084016108a2565b506101375490565b6000610a1560fb546001600160a01b031690565b6001600160a01b0316336001600160a01b03161480610a3f5750610133546001600160a01b031633145b80610a555750610134546001600160a01b031633145b610aa15760405162461bcd60e51b815260206004820152601d60248201527f526f756c657474653a20756e617574686f72697a65642061636365737300000060448201526064016108a2565b50610139546001600160a01b031690565b6001600160a01b0382166000908152610131602090815260408083208484529091528120600281015415801590610aee5750600581015460ff16155b9150505b92915050565b306001600160a01b037f0000000000000000000000000000000000000000000000000000000000000000161415610b415760405162461bcd60e51b81526004016108a2906144d8565b7f00000000000000000000000000000000000000000000000000000000000000006001600160a01b0316610b8a60008051602061496b833981519152546001600160a01b031690565b6001600160a01b031614610bb05760405162461bcd60e51b81526004016108a290614559565b610bb981612892565b60408051600080825260208201909252610bd5918391906128bc565b50565b333b15610c1e5760405162461bcd60e51b815260206004820152601460248201527318dbdb9d1c9858dd081b9bdd08185b1b1bddd95960621b60448201526064016108a2565b333214610c6d5760405162461bcd60e51b815260206004820152601a60248201527f70726f787920636f6e7472616374206e6f7420616c6c6f77656400000000000060448201526064016108a2565b600260c9541415610cc05760405162461bcd60e51b815260206004820152601f60248201527f5265656e7472616e637947756172643a207265656e7472616e742063616c6c0060448201526064016108a2565b600260c9553360009081526101316020908152604080832084845290915290206005015462010000900460ff1615610d2c5760405162461bcd60e51b815260206004820152600f60248201526e14995dd85c991cc818db185a5b5959608a1b60448201526064016108a2565b600080610d39833361231b565b915091508180610d4e5750610d4e3384610ab2565b610d9a5760405162461bcd60e51b815260206004820152601b60248201527f4e6f7420636c61696d61626c65206f7220726566756e6461626c65000000000060448201526064016108a2565b610da43384610ab2565b15610dca5750336000908152610131602090815260408083208584529091529020600201545b336000818152610131602090815260408083208784529091529020600501805462ff0000191662010000179055610e01908261287a565b604051818152839033907f34fcbac0073d7c3d388e51312faf357774904998eeb8fca628b9e6f65ee1cbf79060200160405180910390a35050600160c95550565b610133546001600160a01b03163314610e6d5760405162461bcd60e51b81526004016108a290614634565b6101388190556101355460408051918252602082018390527f91468f876874ad3a066a452908933a03e2cb1ccfc58171e035732870709bc5039101610942565b610133546000906001600160a01b03163314610edb5760405162461bcd60e51b81526004016108a290614634565b60335460ff16610f245760405162461bcd60e51b815260206004820152601460248201527314185d5cd8589b194e881b9bdd081c185d5cd95960621b60448201526064016108a2565b610f2c612a36565b7faaa520fdd7d2c83061d632fa017b0432407e798818af63ea908589fceda39ab761013554604051610f6091815260200190565b60405180910390a150600190565b610133546001600160a01b03163314610f995760405162461bcd60e51b81526004016108a290614634565b47610bd581611d89565b306001600160a01b037f0000000000000000000000000000000000000000000000000000000000000000161415610fec5760405162461bcd60e51b81526004016108a2906144d8565b7f00000000000000000000000000000000000000000000000000000000000000006001600160a01b031661103560008051602061496b833981519152546001600160a01b031690565b6001600160a01b03161461105b5760405162461bcd60e51b81526004016108a290614559565b61106482612892565b611070828260016128bc565b5050565b6000306001600160a01b037f000000000000000000000000000000000000000000000000000000000000000016146111145760405162461bcd60e51b815260206004820152603860248201527f555550535570677261646561626c653a206d757374206e6f742062652063616c60448201527f6c6564207468726f7567682064656c656761746563616c6c000000000000000060648201526084016108a2565b5060008051602061496b83398151915290565b610133546001600160a01b031633146111525760405162461bcd60e51b81526004016108a290614634565b8051825114801561116557506007825111155b6111815760405162461bcd60e51b81526004016108a290614524565b60005b82518160ff1610156112f4576007838260ff16815181106111a7576111a761491a565b602002602001015160ff16106111cf5760405162461bcd60e51b81526004016108a29061447b565b61012f6000848360ff16815181106111e9576111e961491a565b602002602001015160ff1660ff16815260200190815260200160002054828260ff168151811061121b5761121b61491a565b6020026020010151111561128a5760405162461bcd60e51b815260206004820152603060248201527f526f756c657474653a206d696e426574416d6f756e742073686f756c6420626560448201526f080f0f481b585e10995d105b5bdd5b9d60821b60648201526084016108a2565b818160ff168151811061129f5761129f61491a565b602002602001015161012e6000858460ff16815181106112c1576112c161491a565b602002602001015160ff1660ff1681526020019081526020016000208190555080806112ec906148e4565b915050611184565b50816040516113039190614303565b6040518091039020610135547ff383865f73d1e1e26716bfa855d83a847055bfedffd2d12384534744d123813d8360405161133e91906143f1565b60405180910390a35050565b6040805160078082526101008201909252606091600091906020820160e08036833701905050905060005b60078160ff1610156113d05760ff808216600081815261012d6020526040902054845192169184919081106113ac576113ac61491a565b60ff90921660209283029190910190910152806113c8816148e4565b915050611375565b50919050565b60fb546001600160a01b031633146114005760405162461bcd60e51b81526004016108a2906145ff565b6001600160a01b0381166114265760405162461bcd60e51b81526004016108a2906145cf565b61013380546001600160a01b038381166001600160a01b031983168117909355604080519190921680825260208201939093527f7e644d79422f17c01e4894b5f4f588d331ebfa28653d42ae832dc59e38c9798f91015b60405180910390a15050565b60fb546001600160a01b031633146114b35760405162461bcd60e51b81526004016108a2906145ff565b6114bd6000612ac9565b565b600054610100900460ff166114da5760005460ff16156114de565b303b155b6115415760405162461bcd60e51b815260206004820152602e60248201527f496e697469616c697a61626c653a20636f6e747261637420697320616c72656160448201526d191e481a5b9a5d1a585b1a5e995960921b60648201526084016108a2565b600054610100900460ff16158015611563576000805461ffff19166101011790555b61156b612b1b565b611573612b4a565b61157b612b79565b61159e826000815181106115915761159161491a565b60200260200101516127e2565b816001815181106115b1576115b161491a565b602002602001015161013360006101000a8154816001600160a01b0302191690836001600160a01b03160217905550816002815181106115f3576115f361491a565b60209081029190910181015161013480546001600160a01b039092166001600160a01b03199092169190911790557f363eca0a79dc8ec297995f86b12cc61391ff0de52f1ba01ca23e9716f742e413805460ff199081166012179091557fe2b6217f4c97aa68f5160f7d6659df601bbb6b6328ba78b8ab41ee5c6e7d7a5980548216600c1790557fea19767d888507d04480e03c5531fa09d724e33807f1d26eef5602518076ecd08054821660069081179091557f3122fe5b7d531425375ebfbec0198c35c854cd3c1f71c808c2cc488a3513b22b8054831660041790557faabcafbbeb8d2dab90059ed5ad988783878c7575541ea9b716c257cfc1cdcfef8054831660031790557f83a5379495bafbb8928e1d214d457380d68533cfd67f128d8c6479903eaf4d6e8054831660029081179091557fe4e0b48a604c6350c5e15d99f1e3d11b362e568ca22e631032d954164ef4560180548416600190811790915561012d85527fa581b17bfc4d6578e300cafbf34fd2dc1fef0270d8c73f88a99dcde2859a66398054851690911790557fe278171178ecf2583e4e9c73c9a18d3ff0f6142f8f9926be1eba7c0b61591f508054841690911790557fb114c5a84345a4dcec681cd96c82d9999793302158b218b3096e60eca235e2db8054831660051790557fd9495049dee3e6934b44f75a365d1637a19c5c4a773e43815c83fd58cdf50cb48054831660081790557f2649c796d0213cd7ab10b062403086fe4f7a383b9238e208d2820d607d6f2bdb80548316600b1790557fac00419b81cd86b3479ac535027b5e2eee48e4a3b36c57fd9df5dcdd56a566c080548316601117905560009081527f4e458acb45f190090eb5efcba2667a10ede10f4976f4888ff786677a10db46b28054909216602317909155845190918291829182916118a2919089018101908901613e0a565b61013a80546001600160a01b038681166001600160a81b031990921691909117600160a01b60ff8716021790915561013980546001600160a01b0319169183169190911790556101388290559296509094509250905061190383600a6147d7565b6000805261012e6020527f05487a880b40ff61e5c065c22c3608319ddddfc383570aaf3e5899db942a555e5561193a83600a6147d7565b600160005261012e6020527f78e0405325e9e59eff68beeb0258e598ac7e6900874305b6bed7bce1fce6e2515561197283600a6147d7565b600260005261012e6020527f400769d5c29c672818e686949d361a922486399787bf7ace9efee61b64613dea556119aa83600a6147d7565b600360005261012e6020527fccb78303f1061eb3b75ee3d649f730d5a119aee255fe5d8fe5a197dcd27df652556119e283600a6147d7565b600460005261012e6020527fa135932be7035866fe2486eaf59b5fcdb540af50eae05b6087a7066fe7aee3d255611a1a83600a6147d7565b600560005261012e6020527f7b5e2a2921fcee941ffcb62b67b9dfc1ae9224791915bb37e5756beaeab86a7d55611a5283600a6147d7565b600660005261012e6020527f9047bba89121e89e5d86e8366afbc408a290f8c69e73c300bcf01a4dec5b779b55611a8a83600a6147d7565b611a95906064614882565b6000805261012f6020527fe9104285c6851efcbc5e0e70440200efbdcab556a1c8784776780f8bb44f293155611acc83600a6147d7565b611ad7906050614882565b600160005261012f6020527fd827e4f4260d40048f690f58ae5d0afff32b544267edbfaaef2e1c102dc5f5c155611b0f83600a6147d7565b611b1a906046614882565b600260005261012f6020527f45bd7956d702ab226b2ba8d73529129b53840efd6db995e5e24bc4d00e35a1d355611b5283600a6147d7565b611b5d90603c614882565b600360005261012f6020527faee696e4ea6149c4993ab9cbc96504dd0850cd761ef42abf7bfafdbc33b9654955611b9583600a6147d7565b611ba0906032614882565b600460005261012f6020527fd71fc07ac1b855f4bfafcd08655d852fd426078e4b32e202f861559f1174e48955611bd883600a6147d7565b611be3906028614882565b600560005261012f6020527f20fd249e5d517468f2e74cf2ee0ac2ba2eb70c24d387a5d12699a176fe68d06455611c1b83600a6147d7565b611c26906014614882565b600660005261012f6020527fd5ba6804aba8ecb2419820729d01f268901f5d94bec07b046c2e3e83baa22f1d55505082159150611c6b9050576000805461ff00191690555b505050565b600260c9541415611cc35760405162461bcd60e51b815260206004820152601f60248201527f5265656e7472616e637947756172643a207265656e7472616e742063616c6c0060448201526064016108a2565b600260c95560335460ff1615611ceb5760405162461bcd60e51b81526004016108a2906145a5565b61013554611cfa906001612ba8565b503360009081526101326020526040902054611d17906001612ba8565b503360008181526101326020526040902054611d339190612bbb565b6000611d3d612c25565b9050611d493383612d8a565b3360008181526101326020526040902054611d6591908361341c565b3360008181526101326020526040902054611d8091906134b0565b5050600160c955565b610133546001600160a01b03163314611db45760405162461bcd60e51b81526004016108a290614634565b4781811015611e1a5760405162461bcd60e51b815260206004820152602c60248201527f62616c616e616365206f66206e617469766520746f6b656e20696e20636f6e7460448201526b7261637420746f6f206c6f7760a01b60648201526084016108a2565b610133546040516000916001600160a01b03169084908381818185875af1925050503d8060008114611e68576040519150601f19603f3d011682016040523d82523d6000602084013e611e6d565b606091505b5050905080611ebe5760405162461bcd60e51b815260206004820181905260248201527f4661696c75726520696e206e617469766520746f6b656e207472616e7366657260448201526064016108a2565b61013354604080516001600160a01b039092168252602082018590527f2c876ecb97b3c6854f2488d373403f903eacb800e51c159a5c0c7a9c857e482791015b60405180910390a1505050565b610133546000906001600160a01b03163314611f395760405162461bcd60e51b81526004016108a290614634565b60335460ff1615611f5c5760405162461bcd60e51b81526004016108a2906145a5565b611f6461365d565b7f68b095021b1f40fe513109f513c66692f0b3219aee674a69f4efc57badb8201d61013554604051610f6091815260200190565b610133546001600160a01b03163314611fc35760405162461bcd60e51b81526004016108a290614634565b80518251148015611fd657506007825111155b611ff25760405162461bcd60e51b81526004016108a290614524565b60005b82518160ff161015612165576007838260ff16815181106120185761201861491a565b602002602001015160ff16106120405760405162461bcd60e51b81526004016108a29061447b565b818160ff16815181106120555761205561491a565b602002602001015161012e6000858460ff16815181106120775761207761491a565b602002602001015160ff1660ff1681526020019081526020016000205411156120fb5760405162461bcd60e51b815260206004820152603060248201527f526f756c657474653a206d6178426574416d6f756e742073686f756c6420626560448201526f080f8f481b5a5b90995d105b5bdd5b9d60821b60648201526084016108a2565b818160ff16815181106121105761211061491a565b602002602001015161012f6000858460ff16815181106121325761213261491a565b602002602001015160ff1660ff16815260200190815260200160002081905550808061215d906148e4565b915050611ff5565b50816040516121749190614303565b6040518091039020610135547f1bf01708b01fba47c22be28c252449ffc7f82e1648a328568dfe7e5627443ea78360405161133e91906143f1565b610133546001600160a01b031633146121da5760405162461bcd60e51b81526004016108a290614634565b6040516370a0823160e01b81523060048201526000906001600160a01b038416906370a082319060240160206040518083038186803b15801561221c57600080fd5b505afa158015612230573d6000803e3d6000fd5b505050506040513d601f19601f820116820180604052508101906122549190614168565b9050818110156122b45760405162461bcd60e51b815260206004820152602560248201527f62616c616e616365206f6620746f6b656e20696e20636f6e747261637420746f6044820152646f206c6f7760d81b60648201526084016108a2565b610133546122cf906001600160a01b038581169116846136b5565b61013354604080516001600160a01b039283168152918516602083015281018390527f42856d0378dde02337bb59ae41747abc77ded8ebdbbc5cbdd1e53693b755493890606001611efe565b6001600160a01b03811660009081526101316020908152604080832085845290915281206005810154829190610100900460ff1682805b60078160ff1610156123d95760ff808216600090815261012d60205260409020546123c5916123be916123879116600161476f565b60ff86811660009081526006890160209081526040808320888516845261012d835281842054851684529091529020549116613718565b8390612ba8565b9150806123d1816148e4565b915050612352565b50600583015460ff1680156123ee5750600081115b97909650945050505050565b610133546001600160a01b031633146124255760405162461bcd60e51b81526004016108a290614634565b6040516370a0823160e01b81523060048201526000906001600160a01b038316906370a082319060240160206040518083038186803b15801561246757600080fd5b505afa15801561247b573d6000803e3d6000fd5b505050506040513d601f19601f8201168201806040525081019061249f9190614168565b905061107082826121af565b610133546001600160a01b031633146124d65760405162461bcd60e51b81526004016108a290614634565b6001600160a01b0381166124fc5760405162461bcd60e51b81526004016108a2906145cf565b61013480546001600160a01b038381166001600160a01b031983168117909355604080519190921680825260208201939093527fd58299b712891143e76310d5e664c4203c940a67db37cf856bdaa3c5c76a802c910161147d565b610133546001600160a01b031633146125825760405162461bcd60e51b81526004016108a290614634565b6001600160a01b0381166125a85760405162461bcd60e51b81526004016108a2906145cf565b61013980546001600160a01b0319166001600160a01b0392909216919091179055565b610133546001600160a01b031633146125f65760405162461bcd60e51b81526004016108a290614634565b61013a805460ff8316600160a01b026001600160a81b03199091166001600160a01b03851617179055610135546040517f39174ed3ef40bb292fb095c08f402d540199c39784206653ddf0554dc6d5bb839161147d91859085909283526001600160a01b0391909116602083015260ff16604082015260600190565b610133546001600160a01b0316331461269d5760405162461bcd60e51b81526004016108a290614634565b805182511480156126b057506007825111155b6126cc5760405162461bcd60e51b81526004016108a290614524565b60005b82518160ff161015612798576007838260ff16815181106126f2576126f261491a565b602002602001015160ff161061271a5760405162461bcd60e51b81526004016108a29061447b565b818160ff168151811061272f5761272f61491a565b602002602001015161012d6000858460ff16815181106127515761275161491a565b602002602001015160ff1660ff16815260200190815260200160002060006101000a81548160ff021916908360ff1602179055508080612790906148e4565b9150506126cf565b50816040516127a79190614303565b6040518091039020610135547f839f4167982dee86a4b2494ef5559f483b9747ccdebba512b9851a154a146b2c8360405161133e9190614435565b60fb546001600160a01b0316331461280c5760405162461bcd60e51b81526004016108a2906145ff565b6001600160a01b0381166128715760405162461bcd60e51b815260206004820152602660248201527f4f776e61626c653a206e6577206f776e657220697320746865207a65726f206160448201526564647265737360d01b60648201526084016108a2565b610bd581612ac9565b61013a54611070906001600160a01b031683836136b5565b60fb546001600160a01b03163314610bd55760405162461bcd60e51b81526004016108a2906145ff565b7f4910fdfa16fed3260ed0e7147f7cc6da11a60208b5b9406d12a635614ffd91435460ff16156128ef57611c6b83613724565b826001600160a01b03166352d1902d6040518163ffffffff1660e01b815260040160206040518083038186803b15801561292857600080fd5b505afa925050508015612958575060408051601f3d908101601f1916820190925261295591810190614168565b60015b6129bb5760405162461bcd60e51b815260206004820152602e60248201527f45524331393637557067726164653a206e657720696d706c656d656e7461746960448201526d6f6e206973206e6f74205555505360901b60648201526084016108a2565b60008051602061496b8339815191528114612a2a5760405162461bcd60e51b815260206004820152602960248201527f45524331393637557067726164653a20756e737570706f727465642070726f786044820152681a58589b195555525160ba1b60648201526084016108a2565b50611c6b8383836137c0565b60335460ff16612a7f5760405162461bcd60e51b815260206004820152601460248201527314185d5cd8589b194e881b9bdd081c185d5cd95960621b60448201526064016108a2565b6033805460ff191690557f5db9ee0a495bf2e6ff9c91a7834c1ba4fdd244a5e8aa4e537bd38aeae4b073aa335b6040516001600160a01b03909116815260200160405180910390a1565b60fb80546001600160a01b038381166001600160a01b0319831681179093556040519116919082907f8be0079c531659141344cd1fd0a4f28419497f9722a3daafe3b4186f6b6457e090600090a35050565b600054610100900460ff16612b425760405162461bcd60e51b81526004016108a290614659565b6114bd6137eb565b600054610100900460ff16612b715760405162461bcd60e51b81526004016108a290614659565b6114bd61381b565b600054610100900460ff16612ba05760405162461bcd60e51b81526004016108a290614659565b6114bd61384e565b6000612bb48284614757565b9392505050565b6001600160a01b03821660008181526101316020908152604080832085845282528083208581556002810193909355514281529192849290917f93cd7333722faf1713b96cf00992a584951cb8fc4619d8ddd6794d7d7f5eaa4a91015b60405180910390a3505050565b600080612c3e6101385442612ba890919063ffffffff16565b61013954604051639bbf750160e01b815260256004820152919250600091829182916001600160a01b0390911690639bbf750190602401606060405180830381600087803b158015612c8f57600080fd5b505af1158015612ca3573d6000803e3d6000fd5b505050506040513d601f19601f82011682018060405250810190612cc7919061427a565b92509250925083811115612d295760405162461bcd60e51b8152602060048201526024808201527f4f7261636c6520757064617465206578636565646564206d617820616c6c6f77604482015263616e636560e01b60648201526084016108a2565b61013754831015612d7c5760405162461bcd60e51b815260206004820152601e60248201527f4f7261636c652075706461746520726f756e644964203c206f6c64206964000060448201526064016108a2565b506101379190915592915050565b60335460ff1615612dad5760405162461bcd60e51b81526004016108a2906145a5565b333b15612df35760405162461bcd60e51b815260206004820152601460248201527318dbdb9d1c9858dd081b9bdd08185b1b1bddd95960621b60448201526064016108a2565b333214612e425760405162461bcd60e51b815260206004820152601a60248201527f70726f787920636f6e7472616374206e6f7420616c6c6f77656400000000000060448201526064016108a2565b6001600160a01b03821660009081526101316020908152604080832033845261013283528184205484529091528120905b82518160ff1610156133a65781600101838260ff1681518110612e9857612e9861491a565b602090810291909101810151825460018181018555600094855293839020825160039092020180548385015160ff9081166101000261ffff199092169316929092179190911781556040820151805192949193612efb9392850192910190613c47565b506060820151816002015550506000838260ff1681518110612f1f57612f1f61491a565b60200260200101516000015190506000848360ff1681518110612f4457612f4461491a565b60200260200101516020015190508160ff1660001415612fa05760ff81161580612f7157508060ff166001145b80612f7f57508060ff166002145b612f9b5760405162461bcd60e51b81526004016108a2906146a4565b613009565b8160ff1660011480612fb557508160ff166004145b15612fe85760ff81161580612f7f57508060ff16600114612f9b5760405162461bcd60e51b81526004016108a2906146a4565b60ff8116156130095760405162461bcd60e51b81526004016108a2906146a4565b60078260ff161061302c5760405162461bcd60e51b81526004016108a29061447b565b61012e60008360ff1660ff16815260200190815260200160002054858460ff168151811061305c5761305c61491a565b602002602001015160600151101580156130b0575061012f60008360ff1660ff16815260200190815260200160002054858460ff16815181106130a1576130a161491a565b60200260200101516060015111155b61313f5760405162461bcd60e51b815260206004820152605460248201527f526f756c657474653a20416d6f756e74203c204d696e426574416d6f756e742060448201527f6f7220416d6f756e74203e204d6178426574416d6f756e7420666f722061746c60648201527365617374206f6e65206f6620746865206265747360601b608482015260a4016108a2565b60ff80831660009081526101306020526040902054865190821691879190861690811061316e5761316e61491a565b60200260200101516040015151146131e65760405162461bcd60e51b815260206004820152603560248201527f526f756c657474653a20696e76616c696420656e747279206f66206e756d62656044820152741c9cc81a5b88185d1b19585cdd081bdb994818995d605a1b60648201526084016108a2565b60ff808316600090815261012d6020526040812054909116905b868560ff16815181106132155761321561491a565b602002602001015160400151518160ff161015613352576132cd878660ff16815181106132445761324461491a565b6020026020010151606001518760060160008a8960ff168151811061326b5761326b61491a565b6020026020010151604001518560ff168151811061328b5761328b61491a565b602002602001015160ff1660ff16815260200190815260200160002060008560ff1660ff16815260200190815260200160002054612ba890919063ffffffff16565b866006016000898860ff16815181106132e8576132e861491a565b6020026020010151604001518460ff16815181106133085761330861491a565b602002602001015160ff1660ff16815260200190815260200160002060008460ff1660ff16815260200190815260200160002081905550808061334a906148e4565b915050613200565b5061338a868560ff168151811061336b5761336b61491a565b6020026020010151606001518660020154612ba890919063ffffffff16565b60028601555082915061339e9050816148e4565b915050612e73565b50600281015461013a546133c9916001600160a01b03909116908590309061387c565b6001600160a01b038316600081815261013260205260409081902054600284015491519092917fbd90cce788ed1011a4276141646374c74680978cfc1a92409fcaad8f4120ad6c91612c18918791614358565b6001600160a01b0383166000818152610131602090815260408083208684529091529081902060058101805460ff1960ff8716610100021661ffff199091161760011790559051909184917f491f9cf3f3dc97b1dc4c6088882473eeafddf4dea47bdc970ca797e3a92dd1e5906134a2904290879091825260ff16602082015260400190565b60405180910390a350505050565b6001600160a01b0382166000908152610131602090815260408083208484529091529020600301541561351a5760405162461bcd60e51b815260206004820152601260248201527114995dd85c991cc818d85b18dd5b185d195960721b60448201526064016108a2565b6001600160a01b03821660009081526101316020908152604080832084845290915281206005810154909161010090910460ff169080805b60078160ff1610156135d95760ff808216600090815261012d60205260409020546135c5916135be916135879116600161476f565b60ff878116600090815260068a0160209081526040808320888516845261012d835281842054851684529091529020549116613718565b8490612ba8565b9250806135d1816148e4565b915050613552565b506003840182905560028401548210156135ff5760028401546135fc90836138b4565b90505b60048401819055610136546136149082612ba8565b610136556040805183815260208101839052869133917fd8664ea611285fc712fa7e23d9d73850ea074c28a1cba2aeeeacc540661997f1910160405180910390a3505050505050565b60335460ff16156136805760405162461bcd60e51b81526004016108a2906145a5565b6033805460ff191660011790557f62e78cea01bee320cd4e420270b5ea74000d11b0c9f74754ebdbfc544b05a258612aac3390565b6040516001600160a01b038316602482015260448101829052611c6b90849063a9059cbb60e01b906064015b60408051601f198184030181529190526020810180516001600160e01b03166001600160e01b0319909316929092179091526138c0565b6000612bb48284614882565b6001600160a01b0381163b6137915760405162461bcd60e51b815260206004820152602d60248201527f455243313936373a206e657720696d706c656d656e746174696f6e206973206e60448201526c1bdd08184818dbdb9d1c9858dd609a1b60648201526084016108a2565b60008051602061496b83398151915280546001600160a01b0319166001600160a01b0392909216919091179055565b6137c983613992565b6000825111806137d65750805b15611c6b576137e583836139d2565b50505050565b600054610100900460ff166138125760405162461bcd60e51b81526004016108a290614659565b6114bd33612ac9565b600054610100900460ff166138425760405162461bcd60e51b81526004016108a290614659565b6033805460ff19169055565b600054610100900460ff166138755760405162461bcd60e51b81526004016108a290614659565b600160c955565b6040516001600160a01b03808516602483015283166044820152606481018290526137e59085906323b872dd60e01b906084016136e1565b6000612bb482846148a1565b6000613915826040518060400160405280602081526020017f5361666545524332303a206c6f772d6c6576656c2063616c6c206661696c6564815250856001600160a01b0316613ac69092919063ffffffff16565b805190915015611c6b57808060200190518101906139339190614146565b611c6b5760405162461bcd60e51b815260206004820152602a60248201527f5361666545524332303a204552433230206f7065726174696f6e20646964206e6044820152691bdd081cdd58d8d9595960b21b60648201526084016108a2565b61399b81613724565b6040516001600160a01b038216907fbc7cd75a20ee27fd9adebab32041f755214dbc6bffa90cc0225b39da2e5c2d3b90600090a250565b60606001600160a01b0383163b613a3a5760405162461bcd60e51b815260206004820152602660248201527f416464726573733a2064656c65676174652063616c6c20746f206e6f6e2d636f6044820152651b9d1c9858dd60d21b60648201526084016108a2565b600080846001600160a01b031684604051613a55919061433c565b600060405180830381855af49150503d8060008114613a90576040519150601f19603f3d011682016040523d82523d6000602084013e613a95565b606091505b5091509150613abd828260405180606001604052806027815260200161498b60279139613add565b95945050505050565b6060613ad58484600085613b16565b949350505050565b60608315613aec575081612bb4565b825115613afc5782518084602001fd5b8160405162461bcd60e51b81526004016108a29190614448565b606082471015613b775760405162461bcd60e51b815260206004820152602660248201527f416464726573733a20696e73756666696369656e742062616c616e636520666f6044820152651c8818d85b1b60d21b60648201526084016108a2565b6001600160a01b0385163b613bce5760405162461bcd60e51b815260206004820152601d60248201527f416464726573733a2063616c6c20746f206e6f6e2d636f6e747261637400000060448201526064016108a2565b600080866001600160a01b03168587604051613bea919061433c565b60006040518083038185875af1925050503d8060008114613c27576040519150601f19603f3d011682016040523d82523d6000602084013e613c2c565b606091505b5091509150613c3c828286613add565b979650505050505050565b82805482825590600052602060002090601f01602090048101928215613cdd5791602002820160005b83821115613cae57835183826101000a81548160ff021916908360ff1602179055509260200192600101602081600001049283019260010302613c70565b8015613cdb5782816101000a81549060ff0219169055600101602081600001049283019260010302613cae565b505b50613ce9929150613ced565b5090565b5b80821115613ce95760008155600101613cee565b600082601f830112613d1357600080fd5b81356020613d28613d2383614733565b614702565b80838252828201915082860187848660051b8901011115613d4857600080fd5b60005b85811015613d70578135613d5e8161495b565b84529284019290840190600101613d4b565b5090979650505050505050565b600082601f830112613d8e57600080fd5b813567ffffffffffffffff811115613da857613da8614930565b613dbb601f8201601f1916602001614702565b818152846020838601011115613dd057600080fd5b816020850160208301376000918101602001919091529392505050565b600060208284031215613dff57600080fd5b8135612bb481614946565b60008060008060808587031215613e2057600080fd5b8451613e2b81614946565b6020860151909450613e3c8161495b565b604086015160608701519194509250613e5481614946565b939692955090935050565b60008060408385031215613e7257600080fd5b8235613e7d81614946565b9150602083013567ffffffffffffffff811115613e9957600080fd5b613ea585828601613d7d565b9150509250929050565b60008060408385031215613ec257600080fd5b8235613ecd81614946565b946020939093013593505050565b60008060408385031215613eee57600080fd5b8235613ef981614946565b91506020830135613f098161495b565b809150509250929050565b60006020808385031215613f2757600080fd5b823567ffffffffffffffff80821115613f3f57600080fd5b818501915085601f830112613f5357600080fd5b8135613f61613d2382614733565b80828252858201915085850189878560051b8801011115613f8157600080fd5b60005b8481101561401b57813586811115613f9b57600080fd5b87016080818d03601f1901811315613fb257600080fd5b613fba6146d9565b8a830135613fc78161495b565b81526040830135613fd78161495b565b818c0152606083013589811115613fed57600080fd5b613ffb8f8d83870101613d02565b604083015250910135606082015284529287019290870190600101613f84565b50909998505050505050505050565b6000806040838503121561403d57600080fd5b823567ffffffffffffffff8082111561405557600080fd5b61406186838701613d02565b935060209150818501358181111561407857600080fd5b85019050601f8101861361408b57600080fd5b8035614099613d2382614733565b80828252848201915084840189868560051b87010111156140b957600080fd5b600094505b838510156140dc5780358352600194909401939185019185016140be565b5080955050505050509250929050565b600080604083850312156140ff57600080fd5b823567ffffffffffffffff8082111561411757600080fd5b61412386838701613d02565b9350602085013591508082111561413957600080fd5b50613ea585828601613d02565b60006020828403121561415857600080fd5b81518015158114612bb457600080fd5b60006020828403121561417a57600080fd5b5051919050565b6000806040838503121561419457600080fd5b823567ffffffffffffffff808211156141ac57600080fd5b6141b886838701613d7d565b93506020915081850135818111156141cf57600080fd5b85019050601f810186136141e257600080fd5b80356141f0613d2382614733565b80828252848201915084840189868560051b870101111561421057600080fd5b600094505b838510156140dc57803561422881614946565b835260019490940193918501918501614215565b60006020828403121561424e57600080fd5b5035919050565b6000806040838503121561426857600080fd5b823591506020830135613f0981614946565b60008060006060848603121561428f57600080fd5b8351925060208401519150604084015190509250925092565b6000602082840312156142ba57600080fd5b8135612bb48161495b565b600081518084526020808501945080840160005b838110156142f857815160ff16875295820195908201906001016142d9565b509495945050505050565b815160009082906020808601845b8381101561433057815160ff1685529382019390820190600101614311565b50929695505050505050565b6000825161434e8184602087016148b8565b9190910192915050565b60006040808301818452808651808352606092508286019150828160051b8701016020808a0160005b848110156143dc57605f198a85030186528151608060ff808351168752808684015116868801525089820151818b8801526143be828801826142c5565b928a0151968a01969096525095830195935090820190600101614381565b50509690960196909652509295945050505050565b6020808252825182820181905260009190848201906040850190845b818110156144295783518352928401929184019160010161440d565b50909695505050505050565b602081526000612bb460208301846142c5565b60208152600082518060208401526144678160408501602087016148b8565b601f01601f19169190910160400192915050565b6020808252603b908201527f526f756c657474653a2062657454797065732063616e2072616e67652062657460408201527f7765656e203020616e64203628696e636c7564656429206f6e6c790000000000606082015260800190565b6020808252602c908201527f46756e6374696f6e206d7573742062652063616c6c6564207468726f7567682060408201526b19195b1959d85d1958d85b1b60a21b606082015260800190565b6020808252818101527f526f756c657474653a204172726179206c656e67746873206d69736d61746368604082015260600190565b6020808252602c908201527f46756e6374696f6e206d7573742062652063616c6c6564207468726f7567682060408201526b6163746976652070726f787960a01b606082015260800190565b60208082526010908201526f14185d5cd8589b194e881c185d5cd95960821b604082015260600190565b60208082526016908201527543616e6e6f74206265207a65726f206164647265737360501b604082015260600190565b6020808252818101527f4f776e61626c653a2063616c6c6572206973206e6f7420746865206f776e6572604082015260600190565b6020808252600b908201526a61646d696e3a207775743f60a81b604082015260600190565b6020808252602b908201527f496e697469616c697a61626c653a20636f6e7472616374206973206e6f74206960408201526a6e697469616c697a696e6760a81b606082015260800190565b6020808252818101527f526f756c657474653a20496e76616c696420646966666572656e746961746f72604082015260600190565b6040516080810167ffffffffffffffff811182821017156146fc576146fc614930565b60405290565b604051601f8201601f1916810167ffffffffffffffff8111828210171561472b5761472b614930565b604052919050565b600067ffffffffffffffff82111561474d5761474d614930565b5060051b60200190565b6000821982111561476a5761476a614904565b500190565b600060ff821660ff84168060ff0382111561478c5761478c614904565b019392505050565b600181815b808511156147cf5781600019048211156147b5576147b5614904565b808516156147c257918102915b93841c9390800290614799565b509250929050565b6000612bb460ff8416836000826147f057506001610af2565b816147fd57506000610af2565b8160018114614813576002811461481d57614839565b6001915050610af2565b60ff84111561482e5761482e614904565b50506001821b610af2565b5060208310610133831016604e8410600b841016171561485c575081810a610af2565b6148668383614794565b806000190482111561487a5761487a614904565b029392505050565b600081600019048311821515161561489c5761489c614904565b500290565b6000828210156148b3576148b3614904565b500390565b60005b838110156148d35781810151838201526020016148bb565b838111156137e55750506000910152565b600060ff821660ff8114156148fb576148fb614904565b60010192915050565b634e487b7160e01b600052601160045260246000fd5b634e487b7160e01b600052603260045260246000fd5b634e487b7160e01b600052604160045260246000fd5b6001600160a01b0381168114610bd557600080fd5b60ff81168114610bd557600080fdfe360894a13ba1a3210667c828492db98dca3e2076cc3735a920a3ca505d382bbc416464726573733a206c6f772d6c6576656c2064656c65676174652063616c6c206661696c6564a2646970667358221220706169cd7ea69d42f086e3f3e282a2f69037e05f3e684dd0e8a11001ed5d3fb264736f6c63430008060033",
  "immutableReferences": {
    "617": [
      {
        "length": 32,
        "start": 2819
      },
      {
        "length": 32,
        "start": 2883
      },
      {
        "length": 32,
        "start": 4014
      },
      {
        "length": 32,
        "start": 4078
      },
      {
        "length": 32,
        "start": 4225
      }
    ]
  },
  "source": "// SPDX-License-Identifier: MIT\r\n\r\npragma solidity ^0.8.5;\r\n\r\nimport \"@openzeppelin/contracts-upgradeable/proxy/utils/UUPSUpgradeable.sol\";\r\nimport \"@openzeppelin/contracts-upgradeable/security/ReentrancyGuardUpgradeable.sol\";\r\nimport \"@openzeppelin/contracts-upgradeable/access/OwnableUpgradeable.sol\";\r\nimport \"@openzeppelin/contracts-upgradeable/security/PausableUpgradeable.sol\";\r\nimport \"@openzeppelin/contracts-upgradeable/utils/math/SafeMathUpgradeable.sol\";\r\nimport \"@openzeppelin/contracts-upgradeable/token/ERC20/utils/SafeERC20Upgradeable.sol\";\r\nimport \"./interfaces/IRandomGenerator.sol\";\r\n\r\ncontract Roulette is \r\n    Initializable,\r\n    PausableUpgradeable,\r\n    UUPSUpgradeable,\r\n    ReentrancyGuardUpgradeable,\r\n    OwnableUpgradeable\r\n{\r\n    using SafeMathUpgradeable for uint256;\r\n    using SafeERC20Upgradeable for IERC20Upgradeable;\r\n\r\n    struct Round {\r\n        uint256 epoch;\r\n        Bet[] bets;\r\n        uint256 totalAmountBet;\r\n        uint256 totalRewardAmount;\r\n        uint256 treasuryCollections;\r\n        bool oracleCalled;\r\n        uint8 winningNumber;\r\n        bool claimed;\r\n        // the amount put on a number with a slab\r\n        // totalAmountInSlabs[number][slab] = total amount bet on that number in a slab\r\n        mapping(uint8 => mapping(uint8 => uint256)) totalAmountInSlabs;\r\n    }\r\n\r\n    /** \r\n    * @dev BetTypes\r\n    * 0 for RedBlack, OddEven, HighLow => 18 numbers and reward = 1x the amount bet\r\n    * 1 for Columns, Dozens => 12 numbers and reward = 2x the amount bet\r\n    * 2 for Line => 6 numbers and reward = 5x the amount bet\r\n    * 3 for Corner => 4 numbers and reward = 8x the amount bet\r\n    * 4 for Street, ThreeNumBetsWithZero => 3 numbers and reward = 11x the amount bet\r\n    * 5 for Split => 2 numbers and reward = 17x the amount bet\r\n    * 6 for Number => 1 number and reward = 35x the amount bet\r\n    */\r\n    \r\n    struct Bet{\r\n        /**\r\n        * @dev Differentiator \r\n        * for betType 0 => diff 0 for RedBlack, 1 for OddEven and 2 for HighLow\r\n        * for betType 1 => diff 0 for columns and 1 for Dozens\r\n        * for betType 2 => diff 0 for Line\r\n        * for betType 3 => diff 0 for Corner\r\n        * for betType 4 => diff 0 for Street and 1 for ThreeNumBetsWithZero\r\n        * for betType 5 => diff 0 for Split\r\n        * for betType 6 => diff 0 for Number\r\n        */\r\n        \r\n        uint8 betType;\r\n        uint8 differentiator;\r\n        uint8[] numbers;\r\n        uint256 amount;\r\n    }\r\n\r\n    //Payout, MinBetAmount, MaxBetAmount by BetType\r\n    mapping(uint8 => uint8) public payout;\r\n    mapping(uint8 => uint256) public minBetAmount;\r\n    mapping(uint8 => uint256) public maxBetAmount;\r\n    //For each kind of bet, the required number of numbers to be bet on\r\n    mapping(uint8 => uint8) public numbersByKindOfBet;\r\n    //Round by roundId\r\n    mapping(address => mapping(uint256 => Round)) public rounds;\r\n    mapping(address => uint256) public currentUserEpoch;\r\n    \r\n    address public admin;\r\n    address public operator;\r\n    uint256 public counter;\r\n    uint256 public treasuryAmount;\r\n    uint256 private randomRoundId;\r\n\r\n    uint256 public randomNumUpdateAllowance; // seconds\r\n    IRandomGenerator private randomGenerator;\r\n\r\n    //Token which is used for betting\r\n    address public tokenStaked;\r\n    uint8 public tokenDecimals;\r\n\r\n    event StartRound(\r\n        address indexed user, \r\n        uint256 indexed epoch,\r\n        uint256 timestamp\r\n        );\r\n    event EndRound(\r\n        address indexed user, \r\n        uint256 indexed epoch,\r\n        uint256 timestamp,\r\n        uint256 winningNumber\r\n        );\r\n    event Bets(\r\n        Bet[] bets,\r\n        address indexed sender,\r\n        uint256 indexed currentEpoch,\r\n        uint256 totalAmount\r\n    );\r\n    event Claim(\r\n        address indexed sender,\r\n        uint256 indexed currentEpoch,\r\n        uint256 amount\r\n    );\r\n    event ClaimTreasury(uint256 amount);\r\n    event PayoutUpdated(\r\n        uint256 indexed epoch,\r\n        uint8[] indexed betType,\r\n        uint8[] payout\r\n    );\r\n    event MinBetAmountUpdated(\r\n        uint256 indexed epoch,\r\n        uint8[] indexed betType, \r\n        uint256[] minBetAmount\r\n        );\r\n    event MaxBetAmountUpdated(\r\n        uint256 indexed epoch,\r\n        uint8[] indexed betType, \r\n        uint256[] maxBetAmount\r\n        );\r\n    event RewardsCalculated(\r\n        address indexed user,\r\n        uint256 indexed epoch,\r\n        uint256 rewardAmount,\r\n        uint256 treasuryAmount\r\n    );\r\n    event Pause(uint256 epoch);\r\n    event Unpause(uint256 epoch);\r\n    event OperatorChanged(address previousOperator, address newOperator);\r\n    event OracleUpdateAllowanceUpdated(\r\n        uint256 currentEpoch, \r\n        uint256 _randomNumUpdateAllowance\r\n        );\r\n    event TokenWithdrawal(address to, address token, uint256 amount);\r\n    event NativeWithdrawal(address to, uint256 amount);\r\n    event TokenStakedUpdated(uint256 epoch, address token, uint8 decimals);\r\n\r\n    function initialize(\r\n        bytes memory data,\r\n        address[] memory _ownerAdminOperator\r\n    ) public initializer {\r\n\r\n        __Ownable_init();\r\n        __Pausable_init();\r\n        __ReentrancyGuard_init();\r\n\r\n        transferOwnership(_ownerAdminOperator[0]);\r\n        admin = _ownerAdminOperator[1];\r\n        operator = _ownerAdminOperator[2];\r\n\r\n        numbersByKindOfBet[0] = 18;\r\n        numbersByKindOfBet[1] = 12;\r\n        numbersByKindOfBet[2] = 6;\r\n        numbersByKindOfBet[3] = 4;\r\n        numbersByKindOfBet[4] = 3;\r\n        numbersByKindOfBet[5] = 2;\r\n        numbersByKindOfBet[6] = 1;\r\n\r\n        //Setting the bet payouts for different kinds of bets\r\n        payout[0] = 1;\r\n        payout[1] = 2;\r\n        payout[2] = 5;\r\n        payout[3] = 8;\r\n        payout[4] = 11;\r\n        payout[5] = 17;\r\n        payout[6] = 35;        \r\n\r\n        address _tokenStaked;\r\n        uint8 _decimals;\r\n        uint256 _randomNumUpdateAllowance;\r\n        address _randomGenerator;\r\n        \r\n        (_tokenStaked, _decimals, _randomNumUpdateAllowance, _randomGenerator) \r\n            = abi.decode(\r\n                    data, \r\n                    (address, uint8, uint256, address)\r\n                );\r\n\r\n        tokenStaked = _tokenStaked;\r\n        tokenDecimals = _decimals;\r\n        randomGenerator = IRandomGenerator(_randomGenerator);\r\n        randomNumUpdateAllowance = _randomNumUpdateAllowance;\r\n\r\n        //Setting min bet amounts and max bet amounts for each bet type\r\n        //Min Bet is 1 token\r\n        minBetAmount[0] = 10 ** _decimals;\r\n        minBetAmount[1] = 10 ** _decimals;\r\n        minBetAmount[2] = 10 ** _decimals;\r\n        minBetAmount[3] = 10 ** _decimals;\r\n        minBetAmount[4] = 10 ** _decimals;\r\n        minBetAmount[5] = 10 ** _decimals;\r\n        minBetAmount[6] = 10 ** _decimals;\r\n\r\n        //Max bets for outside bets are 100 USDC\r\n        //Max bets for inside bets are according to the payout!\r\n        maxBetAmount[0] = 100 * 10 ** _decimals;\r\n        maxBetAmount[1] = 80 * 10 ** _decimals;\r\n        maxBetAmount[2] = 70 * 10 ** _decimals;\r\n        maxBetAmount[3] = 60 * 10 ** _decimals;\r\n        maxBetAmount[4] = 50 * 10 ** _decimals;\r\n        maxBetAmount[5] = 40 * 10 ** _decimals;\r\n        maxBetAmount[6] = 20 * 10 ** _decimals;\r\n    }\r\n\r\n    function _authorizeUpgrade(address newImplementation) internal override onlyOwner(){}\r\n\r\n    modifier onlyAdmin{\r\n        require(msg.sender == admin, \"admin: wut?\");\r\n        _;\r\n    }\r\n\r\n    modifier onlyOperator{\r\n        require(msg.sender == operator, \"operator: wut?\");\r\n        _;\r\n    }\r\n\r\n    modifier notContract{\r\n        require(!_isContract(msg.sender), \"contract not allowed\");\r\n        require(msg.sender == tx.origin, \"proxy contract not allowed\");\r\n        _;\r\n    }\r\n\r\n    /**\r\n     * @dev set admin address\r\n     * callable by owner\r\n     */\r\n    function setAdmin(address _admin) external onlyOwner {\r\n        require(_admin != address(0), \"Cannot be zero address\");\r\n        address previousAdmin = admin;\r\n        admin = _admin;\r\n        emit AdminChanged(previousAdmin, admin);\r\n    }\r\n\r\n    /**\r\n     * @dev set operator address\r\n     * callable by admin\r\n     */\r\n    function setOperator(address _operator) external onlyAdmin {\r\n        require(_operator != address(0), \"Cannot be zero address\");\r\n        address previousOperator = operator;\r\n        operator = _operator;\r\n        emit OperatorChanged(previousOperator, operator);\r\n    }\r\n\r\n    \r\n    /**\r\n     * @dev set token staked and its decimals\r\n     * Callable by admin\r\n     */\r\n    function changeTokenStaked(address token, uint8 _decimals) \r\n        external \r\n        onlyAdmin \r\n    {\r\n        tokenStaked = token;\r\n        tokenDecimals = _decimals;\r\n\r\n        emit TokenStakedUpdated(counter, token, _decimals);\r\n    }\r\n    \r\n    \r\n    /**\r\n     * @dev get all the payouts\r\n     */\r\n    function getPayouts() external view returns(uint8[] memory){\r\n        uint8[] memory payouts = new uint8[](7);\r\n        for(uint8 i = 0; i < 7; i++){\r\n            payouts[i] = payout[i];\r\n        }\r\n        return payouts;\r\n    }\r\n\r\n    /**\r\n     * @dev get random number address\r\n     * callable by owner, admin and operator\r\n     */\r\n    function getRandomNumberOracleAdd() external view returns(address){\r\n        require(\r\n            msg.sender == owner() || msg.sender == admin || msg.sender == operator,\r\n            \"Roulette: unauthorized access\" \r\n            );\r\n        return address(randomGenerator);\r\n    }\r\n\r\n\r\n    /**\r\n     * @dev set random number address\r\n     * callable by admin\r\n     */\r\n    function setRandomNumberOracleAdd(address _randomGenerator) external onlyAdmin {\r\n        require(_randomGenerator != address(0), \"Cannot be zero address\");\r\n        randomGenerator = IRandomGenerator(_randomGenerator);\r\n    }\r\n\r\n\r\n    /**\r\n     * @dev set random number update allowance\r\n     * callable by admin\r\n     */\r\n    function setRandomNumUpdateAllowance(uint256 _randomNumUpdateAllowance)\r\n        external\r\n        onlyAdmin\r\n    {\r\n        randomNumUpdateAllowance = _randomNumUpdateAllowance;\r\n        emit OracleUpdateAllowanceUpdated(counter, _randomNumUpdateAllowance);\r\n    }\r\n\r\n    /**\r\n     * @dev set payout rate\r\n     * callable by admin\r\n     */\r\n    function setPayout(uint8[] memory betType, uint8[] memory _payout) external onlyAdmin {\r\n        require(\r\n            betType.length == _payout.length && betType.length <= 7,\r\n            \"Roulette: Array lengths mismatch\"\r\n            );\r\n\r\n        for(uint8 i = 0; i < betType.length; i++){\r\n            require(\r\n                betType[i] < 7,\r\n                \"Roulette: betTypes can range between 0 and 6(included) only\"\r\n                );\r\n            payout[betType[i]] = _payout[i];\r\n        }\r\n\r\n        emit PayoutUpdated(counter, betType, _payout);\r\n    }\r\n\r\n    /**\r\n     * @dev set minBetAmount\r\n     * callable by admin\r\n     */\r\n    function setMinBetAmount(\r\n        uint8[] memory betType, \r\n        uint256[] memory _minBetAmount\r\n        ) external \r\n        onlyAdmin \r\n    {\r\n        require(\r\n            betType.length == _minBetAmount.length && betType.length <= 7,\r\n            \"Roulette: Array lengths mismatch\"\r\n            );\r\n        \r\n        for(uint8 i = 0; i < betType.length; i++){\r\n            \r\n            require(\r\n                betType[i] < 7,\r\n                \"Roulette: betTypes can range between 0 and 6(included) only\"\r\n                );\r\n\r\n            require(\r\n                _minBetAmount[i] <= maxBetAmount[betType[i]],\r\n                \"Roulette: minBetAmount should be <= maxBetAmount\"\r\n                );\r\n\r\n            minBetAmount[betType[i]] = _minBetAmount[i];\r\n        }\r\n\r\n        emit MinBetAmountUpdated(counter, betType, _minBetAmount);\r\n    }\r\n\r\n    /**\r\n     * @dev set maxBetAmount\r\n     * callable by admin\r\n     */\r\n    function setMaxBetAmount(\r\n        uint8[] memory betType, \r\n        uint256[] memory _maxBetAmount\r\n        ) external \r\n        onlyAdmin \r\n    {\r\n        require(\r\n            betType.length == _maxBetAmount.length && betType.length <= 7,\r\n            \"Roulette: Array lengths mismatch\"\r\n            );\r\n        \r\n        for(uint8 i = 0; i < betType.length; i++){\r\n\r\n            require(\r\n                betType[i] < 7,\r\n                \"Roulette: betTypes can range between 0 and 6(included) only\"\r\n                );\r\n\r\n            require(\r\n                minBetAmount[betType[i]] <= _maxBetAmount[i],\r\n                \"Roulette: maxBetAmount should be >= minBetAmount\"\r\n                );\r\n            \r\n            maxBetAmount[betType[i]] = _maxBetAmount[i];\r\n        }\r\n\r\n        emit MaxBetAmountUpdated(counter, betType, _maxBetAmount);\r\n    }\r\n\r\n    /**\r\n     * @dev gets random round id\r\n     * callable by admin\r\n     */\r\n    function getRandomRoundId() public view returns(uint256){\r\n        require(\r\n            msg.sender == owner() || msg.sender == admin || msg.sender == operator,\r\n            \"Roulette: Unauthorized function call\"\r\n        );\r\n        return randomRoundId;\r\n    }\r\n\r\n\r\n    /**\r\n     * @dev Start the next round n, lock price for round n-1, end round n-2\r\n     */\r\n    function executeRound(\r\n        Bet[] memory bets\r\n        ) \r\n        external \r\n        virtual \r\n        nonReentrant\r\n        whenNotPaused \r\n    {\r\n        counter.add(1);\r\n        currentUserEpoch[msg.sender].add(1);\r\n        _startRound(msg.sender, currentUserEpoch[msg.sender]);\r\n        uint8 randomNum = _getNumberFromOracle();\r\n        _bet(msg.sender, bets);\r\n        _endRound(msg.sender, currentUserEpoch[msg.sender], randomNum);\r\n        _calculateRewards(msg.sender, currentUserEpoch[msg.sender]);\r\n    }\r\n\r\n\r\n    function _startRound(address user, uint256 epoch) internal virtual{\r\n        Round storage round = rounds[user][epoch];\r\n        round.epoch = epoch;\r\n        round.totalAmountBet = 0;\r\n\r\n        emit StartRound(user, epoch, block.timestamp);\r\n    }\r\n\r\n\r\n    /**\r\n     * @dev End round\r\n     */\r\n    function _endRound(address user, uint256 epoch, uint8 winningNum) internal virtual{\r\n        Round storage round = rounds[user][epoch];\r\n        round.winningNumber = winningNum;\r\n        round.oracleCalled = true;\r\n\r\n        emit EndRound(user, epoch, block.timestamp, winningNum);\r\n    }\r\n\r\n    /**\r\n     * @dev Calculate rewards for round\r\n     */\r\n    function _calculateRewards(address user, uint256 epoch) internal virtual{\r\n        require(\r\n            rounds[user][epoch].totalRewardAmount == 0,\r\n            \"Rewards calculated\"\r\n        );\r\n        Round storage round = rounds[user][epoch];\r\n        uint8 winner = round.winningNumber;\r\n        uint256 totalRewards = 0;\r\n        uint256 treasuryAmt = 0;\r\n\r\n        for(uint8 i = 0; i < 7; i++){\r\n            totalRewards = totalRewards.add(round.totalAmountInSlabs[winner][payout[i]].mul(payout[i] + 1));\r\n        }\r\n\r\n        round.totalRewardAmount = totalRewards;\r\n        if(totalRewards < round.totalAmountBet){\r\n            treasuryAmt = (round.totalAmountBet).sub(totalRewards);\r\n        }\r\n        // Add to treasury\r\n        round.treasuryCollections = treasuryAmt;\r\n        treasuryAmount = treasuryAmount.add(treasuryAmt);\r\n\r\n        emit RewardsCalculated(\r\n            msg.sender,\r\n            epoch,\r\n            totalRewards,\r\n            treasuryAmt\r\n        );\r\n    }\r\n\r\n\r\n    /**\r\n     * @dev User bets\r\n     */\r\n    function _bet(\r\n        address user,\r\n        Bet[] memory bets\r\n        ) \r\n        internal \r\n        virtual\r\n        whenNotPaused \r\n        notContract \r\n        nonReentrant\r\n    {\r\n        Round storage round = rounds[user][currentUserEpoch[msg.sender]];\r\n\r\n        for(uint8 i = 0; i< bets.length; i++){\r\n            \r\n            round.bets.push(bets[i]);\r\n            uint8 betType = bets[i].betType;\r\n            uint8 differentiator = bets[i].differentiator;\r\n\r\n            if(betType == 0){\r\n                require(\r\n                    differentiator == 0 || differentiator == 1 || differentiator == 2,\r\n                    'Roulette: Invalid differentiator'\r\n                    );\r\n            }\r\n\r\n            else if(betType == 1 || betType == 4){\r\n                require(\r\n                    differentiator == 0 || differentiator == 1,\r\n                    'Roulette: Invalid differentiator'\r\n                    );\r\n            }\r\n\r\n            else{\r\n                require(\r\n                    differentiator == 0,\r\n                    'Roulette: Invalid differentiator'\r\n                    );\r\n            }\r\n\r\n            require(betType < 7, \"Roulette: betTypes can range between 0 and 6(included) only\");\r\n\r\n            require(\r\n                bets[i].amount >= minBetAmount[betType] && bets[i].amount <= maxBetAmount[betType],\r\n                \"Roulette: Amount < MinBetAmount or Amount > MaxBetAmount for atleast one of the bets\"\r\n            );\r\n            \r\n            require(\r\n                bets[i].numbers.length == numbersByKindOfBet[betType],\r\n                \"Roulette: invalid entry of numbers in atleast one bet\"\r\n                );\r\n\r\n            uint8 slab = payout[betType];\r\n            \r\n            for(uint8 j = 0; j < bets[i].numbers.length; j++){\r\n                round.totalAmountInSlabs[bets[i].numbers[j]][slab] = \r\n                    (round.totalAmountInSlabs[bets[i].numbers[j]][slab]).add(bets[i].amount);\r\n            }\r\n            round.totalAmountBet = \r\n                (round.totalAmountBet).add(bets[i].amount);\r\n        }\r\n\r\n        IERC20Upgradeable(tokenStaked).safeTransferFrom(user, address(this), round.totalAmountBet);\r\n        \r\n        emit Bets(bets, user, currentUserEpoch[user], round.totalAmountBet);\r\n    }\r\n\r\n   \r\n    function claim(uint256 epoch) external virtual notContract nonReentrant{\r\n        require(!rounds[msg.sender][epoch].claimed, \"Rewards claimed\");\r\n\r\n        (bool canClaim, uint256 reward) = claimable(epoch, msg.sender);\r\n        \r\n        require(canClaim || refundable(msg.sender, epoch), \"Not claimable or refundable\");\r\n        \r\n        if(refundable(msg.sender, epoch)){\r\n            reward = rounds[msg.sender][epoch].totalAmountBet;\r\n        }\r\n\r\n        rounds[msg.sender][epoch].claimed = true;\r\n        _safeTransferToken(address(msg.sender), reward);\r\n\r\n        emit Claim(msg.sender, epoch, reward);\r\n    }\r\n\r\n    /**\r\n     * @dev Claim all rewards in treasury\r\n     * callable by admin\r\n     */\r\n    function claimTreasury() external virtual onlyAdmin{\r\n        require(treasuryAmount > 0, \"Zero treasury amount\");\r\n        uint256 currentTreasuryAmount = treasuryAmount;\r\n        treasuryAmount = 0;\r\n        _safeTransferToken(admin, currentTreasuryAmount);\r\n        emit ClaimTreasury(currentTreasuryAmount);\r\n    }\r\n\r\n    /**\r\n     * @dev called by the admin to pause, triggers stopped state\r\n     */\r\n    function pause() public onlyAdmin whenNotPaused returns(bool){\r\n        _pause();\r\n\r\n        emit Pause(counter);\r\n        return true;\r\n    }\r\n\r\n    /**\r\n     * @dev called by the admin to unpause, returns to normal state\r\n     * Reset genesis state. Once paused, the rounds would need to be kickstarted by genesis\r\n     */\r\n    function unpause() public onlyAdmin whenPaused returns(bool){\r\n        _unpause();\r\n\r\n        emit Unpause(counter);\r\n        return true;\r\n    }\r\n\r\n    /**\r\n     * @dev Get the claimable stats of specific epoch and user account\r\n     */\r\n    function claimable(uint256 epoch, address user) \r\n        public \r\n        virtual\r\n        view \r\n        returns (bool, uint256) \r\n    {\r\n        Round storage round = rounds[user][epoch];\r\n        uint8 winningNum = round.winningNumber;\r\n        uint256 winAmount = 0;\r\n        for(uint8 i = 0; i < 7; i++){\r\n            winAmount = winAmount.add((round.totalAmountInSlabs[winningNum][payout[i]]).mul(payout[i] + 1));\r\n        }\r\n\r\n        return\r\n            ((round.oracleCalled && winAmount > 0), winAmount);\r\n    }\r\n    \r\n    function refundable(address user, uint256 epoch) \r\n    public \r\n    virtual\r\n    view \r\n    returns(bool){\r\n        Round storage round = rounds[user][epoch];\r\n        return \r\n            (round.totalAmountBet != 0) &&\r\n            (!round.oracleCalled);\r\n    }\r\n    /**\r\n     * @dev Get latest recorded price from oracle\r\n     * If it falls below allowed buffer or has not updated, it would be invalid\r\n     */\r\n    function _getNumberFromOracle() internal returns (uint8) {\r\n        uint256 allowedTime = block.timestamp.add(\r\n            randomNumUpdateAllowance\r\n        );\r\n        (uint256 roundId, uint256 winner, uint256 timestamp) = \r\n            randomGenerator.latestRoundData(37);\r\n        require(\r\n            timestamp <= allowedTime,\r\n            \"Oracle update exceeded max allowance\"\r\n        );\r\n        require(\r\n            roundId >= randomRoundId,\r\n            \"Oracle update roundId < old id\"\r\n        );\r\n        randomRoundId = roundId;\r\n        return uint8(winner);\r\n    }\r\n\r\n    function _safeTransferToken(address to, uint256 value) internal {\r\n        IERC20Upgradeable(tokenStaked).safeTransfer(to, value);\r\n    }\r\n\r\n    function _isContract(address addr) internal view returns (bool) {\r\n        uint256 size;\r\n        assembly {\r\n            size := extcodesize(addr)\r\n        }\r\n        return size > 0;\r\n    }\r\n\r\n\r\n    //If someone accidently sends tokens or native currency to this contract\r\n    function withdrawAllTokens(address token) external onlyAdmin{\r\n        uint256 bal = IERC20Upgradeable(token).balanceOf(address(this));\r\n        withdrawToken(token, bal);\r\n    }\r\n\r\n    \r\n    function withdrawToken(address token, uint256 amount) public virtual onlyAdmin{\r\n        // require(token != tokenStaked, \"Cannot withdraw the token staked\");\r\n        uint256 bal = IERC20Upgradeable(token).balanceOf(address(this));\r\n        require(bal >= amount, \"balanace of token in contract too low\");\r\n        IERC20Upgradeable(token).safeTransfer(admin, amount);\r\n        emit TokenWithdrawal(admin, token, amount);\r\n    }\r\n\r\n    function withdrawAllNative() external onlyAdmin{\r\n        uint256 bal = address(this).balance;\r\n        withdrawNative(bal);\r\n    } \r\n\r\n    function withdrawNative(uint256 amount) public virtual onlyAdmin{\r\n        uint256 bal = address(this).balance;\r\n        require(bal >= amount, \"balanace of native token in contract too low\");\r\n        (bool sent, ) = admin.call{value: amount}(\"\");\r\n        require(sent, \"Failure in native token transfer\");\r\n        emit NativeWithdrawal(admin, amount);\r\n    }\r\n}\r\n\r\ncontract RouletteV2 is Roulette{\r\n    using SafeMathUpgradeable for uint256;\r\n    using SafeERC20Upgradeable for IERC20Upgradeable;\r\n    /**\r\n     * @dev User bets\r\n     */\r\n    function _bet(\r\n        address user,\r\n        Bet[] memory bets\r\n        ) \r\n        internal \r\n        virtual\r\n        override\r\n        whenNotPaused \r\n        notContract \r\n    {\r\n        Round storage round = rounds[user][currentUserEpoch[msg.sender]];\r\n\r\n        for(uint8 i = 0; i< bets.length; i++){\r\n            \r\n            round.bets.push(bets[i]);\r\n            uint8 betType = bets[i].betType;\r\n            uint8 differentiator = bets[i].differentiator;\r\n\r\n            if(betType == 0){\r\n                require(\r\n                    differentiator == 0 || differentiator == 1 || differentiator == 2,\r\n                    'Roulette: Invalid differentiator'\r\n                    );\r\n            }\r\n\r\n            else if(betType == 1 || betType == 4){\r\n                require(\r\n                    differentiator == 0 || differentiator == 1,\r\n                    'Roulette: Invalid differentiator'\r\n                    );\r\n            }\r\n\r\n            else{\r\n                require(\r\n                    differentiator == 0,\r\n                    'Roulette: Invalid differentiator'\r\n                    );\r\n            }\r\n\r\n            require(betType < 7, \"Roulette: betTypes can range between 0 and 6(included) only\");\r\n\r\n            require(\r\n                bets[i].amount >= minBetAmount[betType] && bets[i].amount <= maxBetAmount[betType],\r\n                \"Roulette: Amount < MinBetAmount or Amount > MaxBetAmount for atleast one of the bets\"\r\n            );\r\n            \r\n            require(\r\n                bets[i].numbers.length == numbersByKindOfBet[betType],\r\n                \"Roulette: invalid entry of numbers in atleast one bet\"\r\n                );\r\n\r\n            uint8 slab = payout[betType];\r\n            \r\n            for(uint8 j = 0; j < bets[i].numbers.length; j++){\r\n                round.totalAmountInSlabs[bets[i].numbers[j]][slab] = \r\n                    (round.totalAmountInSlabs[bets[i].numbers[j]][slab]).add(bets[i].amount);\r\n            }\r\n            round.totalAmountBet = \r\n                (round.totalAmountBet).add(bets[i].amount);\r\n        }\r\n\r\n        IERC20Upgradeable(tokenStaked).safeTransferFrom(user, address(this), round.totalAmountBet);\r\n        \r\n        emit Bets(bets, user, currentUserEpoch[user], round.totalAmountBet);\r\n    }\r\n\r\n}\r\n\r\ncontract RouletteV3 is RouletteV2{\r\n    using SafeMathUpgradeable for uint256;\r\n\r\n    function executeRound(\r\n        Bet[] memory bets\r\n        ) \r\n        external \r\n        virtual \r\n        override\r\n        nonReentrant\r\n        whenNotPaused \r\n    {\r\n        counter = counter.add(1);\r\n        currentUserEpoch[msg.sender] = currentUserEpoch[msg.sender].add(1);\r\n        _startRound(msg.sender, currentUserEpoch[msg.sender]);\r\n        uint8 randomNum = _getNumberFromOracle();\r\n        _bet(msg.sender, bets);\r\n        _endRound(msg.sender, currentUserEpoch[msg.sender], randomNum);\r\n        _calculateRewards(msg.sender, currentUserEpoch[msg.sender]);\r\n    }\r\n\r\n}\r\n\r\ncontract RouletteV4 is RouletteV3{\r\n    using SafeMathUpgradeable for uint256;\r\n      /**\r\n     * @dev Get the claimable stats of specific epoch and user account\r\n     */\r\n    function claimable(uint256 epoch, address user) \r\n        public \r\n        virtual\r\n        override\r\n        view \r\n        returns (bool, uint256) \r\n    {\r\n        Round storage round = rounds[user][epoch];\r\n        \r\n        \r\n        uint8 winningNum = round.winningNumber;\r\n        uint256 winAmount = 0;\r\n        for(uint8 i = 0; i < 7; i++){\r\n            winAmount = winAmount.add((round.totalAmountInSlabs[winningNum][payout[i]]).mul(payout[i] + 1));\r\n        }\r\n\r\n        return\r\n            ((\r\n                round.oracleCalled && \r\n                !round.claimed && \r\n                winAmount > 0\r\n            ),\r\n             winAmount);\r\n    }\r\n}\r\n\r\ncontract RouletteV5 is RouletteV4{\r\n    using SafeMathUpgradeable for uint256;\r\n      /**\r\n     * @dev Get the claimable stats of specific epoch and user account\r\n     */\r\n    function claimable(uint256 epoch, address user) \r\n        public \r\n        virtual\r\n        override\r\n        view \r\n        returns (bool, uint256) \r\n    {\r\n        Round storage round = rounds[user][epoch];\r\n        if(round.claimed){\r\n            return (false, 0);\r\n        }\r\n        \r\n        uint8 winningNum = round.winningNumber;\r\n        uint256 winAmount = 0;\r\n        for(uint8 i = 0; i < 7; i++){\r\n            winAmount = winAmount.add((round.totalAmountInSlabs[winningNum][payout[i]]).mul(payout[i] + 1));\r\n        }\r\n\r\n        return\r\n            ((\r\n                round.oracleCalled && \r\n                winAmount > 0\r\n            ),\r\n             winAmount);\r\n    }\r\n}",
  "sourcePath": "C:\\Users\\shiva\\OneDrive\\Desktop\\RouletteIndividual\\contracts\\Roulette.sol",
  "compiler": {
    "name": "solc",
    "version": "0.8.6+commit.11564f7e.Emscripten.clang"
  },
  "schemaVersion": "3.4.4",
  "updatedAt": "2022-02-25T17:07:09.637Z",
  "devdoc": {
    "kind": "dev",
    "methods": {
      "changeTokenStaked(address,uint8)": {
        "details": "set token staked and its decimals Callable by admin"
      },
      "claimTreasury()": {
        "details": "Claim all rewards in treasury callable by admin"
      },
      "claimable(uint256,address)": {
        "details": "Get the claimable stats of specific epoch and user account"
      },
      "executeRound((uint8,uint8,uint8[],uint256)[])": {
        "details": "Start the next round n, lock price for round n-1, end round n-2"
      },
      "getPayouts()": {
        "details": "get all the payouts"
      },
      "getRandomNumberOracleAdd()": {
        "details": "get random number address callable by owner, admin and operator"
      },
      "getRandomRoundId()": {
        "details": "gets random round id callable by admin"
      },
      "owner()": {
        "details": "Returns the address of the current owner."
      },
      "pause()": {
        "details": "called by the admin to pause, triggers stopped state"
      },
      "paused()": {
        "details": "Returns true if the contract is paused, and false otherwise."
      },
      "proxiableUUID()": {
        "details": "Implementation of the ERC1822 {proxiableUUID} function. This returns the storage slot used by the implementation. It is used to validate that the this implementation remains valid after an upgrade. IMPORTANT: A proxy pointing at a proxiable contract should not be considered proxiable itself, because this risks bricking a proxy that upgrades to it, by delegating to itself until out of gas. Thus it is critical that this function revert if invoked through a proxy. This is guaranteed by the `notDelegated` modifier."
      },
      "renounceOwnership()": {
        "details": "Leaves the contract without owner. It will not be possible to call `onlyOwner` functions anymore. Can only be called by the current owner. NOTE: Renouncing ownership will leave the contract without an owner, thereby removing any functionality that is only available to the owner."
      },
      "setAdmin(address)": {
        "details": "set admin address callable by owner"
      },
      "setMaxBetAmount(uint8[],uint256[])": {
        "details": "set maxBetAmount callable by admin"
      },
      "setMinBetAmount(uint8[],uint256[])": {
        "details": "set minBetAmount callable by admin"
      },
      "setOperator(address)": {
        "details": "set operator address callable by admin"
      },
      "setPayout(uint8[],uint8[])": {
        "details": "set payout rate callable by admin"
      },
      "setRandomNumUpdateAllowance(uint256)": {
        "details": "set random number update allowance callable by admin"
      },
      "setRandomNumberOracleAdd(address)": {
        "details": "set random number address callable by admin"
      },
      "transferOwnership(address)": {
        "details": "Transfers ownership of the contract to a new account (`newOwner`). Can only be called by the current owner."
      },
      "unpause()": {
        "details": "called by the admin to unpause, returns to normal state Reset genesis state. Once paused, the rounds would need to be kickstarted by genesis"
      },
      "upgradeTo(address)": {
        "details": "Upgrade the implementation of the proxy to `newImplementation`. Calls {_authorizeUpgrade}. Emits an {Upgraded} event."
      },
      "upgradeToAndCall(address,bytes)": {
        "details": "Upgrade the implementation of the proxy to `newImplementation`, and subsequently execute the function call encoded in `data`. Calls {_authorizeUpgrade}. Emits an {Upgraded} event."
      }
    },
    "version": 1
  },
  "userdoc": {
    "kind": "user",
    "methods": {},
    "version": 1
  }
}