{
  "contractName": "Roulette",
  "abi": [
    {
      "anonymous": false,
      "inputs": [
        {
          "indexed": false,
          "internalType": "address",
          "name": "previousAdmin",
          "type": "address"
        },
        {
          "indexed": false,
          "internalType": "address",
          "name": "newAdmin",
          "type": "address"
        }
      ],
      "name": "AdminChanged",
      "type": "event"
    },
    {
      "anonymous": false,
      "inputs": [
        {
          "indexed": true,
          "internalType": "address",
          "name": "beacon",
          "type": "address"
        }
      ],
      "name": "BeaconUpgraded",
      "type": "event"
    },
    {
      "anonymous": false,
      "inputs": [
        {
          "indexed": true,
          "internalType": "address",
          "name": "sender",
          "type": "address"
        },
        {
          "indexed": true,
          "internalType": "uint256",
          "name": "currentEpoch",
          "type": "uint256"
        },
        {
          "indexed": false,
          "internalType": "uint256",
          "name": "amount",
          "type": "uint256"
        }
      ],
      "name": "Claim",
      "type": "event"
    },
    {
      "anonymous": false,
      "inputs": [
        {
          "indexed": true,
          "internalType": "address",
          "name": "user",
          "type": "address"
        },
        {
          "indexed": false,
          "internalType": "uint256",
          "name": "claimCheckpoint",
          "type": "uint256"
        },
        {
          "indexed": false,
          "internalType": "uint256",
          "name": "reward",
          "type": "uint256"
        }
      ],
      "name": "ClaimAll",
      "type": "event"
    },
    {
      "anonymous": false,
      "inputs": [
        {
          "indexed": false,
          "internalType": "uint256",
          "name": "amount",
          "type": "uint256"
        }
      ],
      "name": "ClaimTreasury",
      "type": "event"
    },
    {
      "anonymous": false,
      "inputs": [
        {
          "indexed": true,
          "internalType": "uint256",
          "name": "roundId",
          "type": "uint256"
        },
        {
          "indexed": true,
          "internalType": "address",
          "name": "user",
          "type": "address"
        },
        {
          "indexed": true,
          "internalType": "uint256",
          "name": "epoch",
          "type": "uint256"
        },
        {
          "indexed": false,
          "internalType": "uint8",
          "name": "winningNumber",
          "type": "uint8"
        },
        {
          "indexed": false,
          "internalType": "uint256",
          "name": "prevRoundIdForUser",
          "type": "uint256"
        },
        {
          "indexed": false,
          "internalType": "uint256",
          "name": "totalAmountBet",
          "type": "uint256"
        },
        {
          "indexed": false,
          "internalType": "uint256",
          "name": "totalRewards",
          "type": "uint256"
        },
        {
          "indexed": false,
          "internalType": "uint256",
          "name": "treasuryCollections",
          "type": "uint256"
        }
      ],
      "name": "ExecuteRound",
      "type": "event"
    },
    {
      "anonymous": false,
      "inputs": [
        {
          "indexed": true,
          "internalType": "uint256",
          "name": "epoch",
          "type": "uint256"
        },
        {
          "indexed": true,
          "internalType": "uint8[]",
          "name": "betType",
          "type": "uint8[]"
        },
        {
          "indexed": false,
          "internalType": "uint256[]",
          "name": "maxBetAmount",
          "type": "uint256[]"
        }
      ],
      "name": "MaxBetAmountUpdated",
      "type": "event"
    },
    {
      "anonymous": false,
      "inputs": [
        {
          "indexed": true,
          "internalType": "uint256",
          "name": "epoch",
          "type": "uint256"
        },
        {
          "indexed": true,
          "internalType": "uint8[]",
          "name": "betType",
          "type": "uint8[]"
        },
        {
          "indexed": false,
          "internalType": "uint256[]",
          "name": "minBetAmount",
          "type": "uint256[]"
        }
      ],
      "name": "MinBetAmountUpdated",
      "type": "event"
    },
    {
      "anonymous": false,
      "inputs": [
        {
          "indexed": false,
          "internalType": "address",
          "name": "to",
          "type": "address"
        },
        {
          "indexed": false,
          "internalType": "uint256",
          "name": "amount",
          "type": "uint256"
        }
      ],
      "name": "NativeWithdrawal",
      "type": "event"
    },
    {
      "anonymous": false,
      "inputs": [
        {
          "indexed": false,
          "internalType": "address",
          "name": "previousOperator",
          "type": "address"
        },
        {
          "indexed": false,
          "internalType": "address",
          "name": "newOperator",
          "type": "address"
        }
      ],
      "name": "OperatorChanged",
      "type": "event"
    },
    {
      "anonymous": false,
      "inputs": [
        {
          "indexed": false,
          "internalType": "uint256",
          "name": "currentEpoch",
          "type": "uint256"
        },
        {
          "indexed": false,
          "internalType": "uint256",
          "name": "_randomNumUpdateAllowance",
          "type": "uint256"
        }
      ],
      "name": "OracleUpdateAllowanceUpdated",
      "type": "event"
    },
    {
      "anonymous": false,
      "inputs": [
        {
          "indexed": true,
          "internalType": "address",
          "name": "previousOwner",
          "type": "address"
        },
        {
          "indexed": true,
          "internalType": "address",
          "name": "newOwner",
          "type": "address"
        }
      ],
      "name": "OwnershipTransferred",
      "type": "event"
    },
    {
      "anonymous": false,
      "inputs": [
        {
          "indexed": false,
          "internalType": "uint256",
          "name": "epoch",
          "type": "uint256"
        }
      ],
      "name": "Pause",
      "type": "event"
    },
    {
      "anonymous": false,
      "inputs": [
        {
          "indexed": false,
          "internalType": "address",
          "name": "account",
          "type": "address"
        }
      ],
      "name": "Paused",
      "type": "event"
    },
    {
      "anonymous": false,
      "inputs": [
        {
          "indexed": true,
          "internalType": "uint256",
          "name": "epoch",
          "type": "uint256"
        },
        {
          "indexed": true,
          "internalType": "uint8[]",
          "name": "betType",
          "type": "uint8[]"
        },
        {
          "indexed": false,
          "internalType": "uint8[]",
          "name": "payout",
          "type": "uint8[]"
        }
      ],
      "name": "PayoutUpdated",
      "type": "event"
    },
    {
      "anonymous": false,
      "inputs": [
        {
          "indexed": false,
          "internalType": "uint256",
          "name": "epoch",
          "type": "uint256"
        },
        {
          "indexed": false,
          "internalType": "address",
          "name": "token",
          "type": "address"
        },
        {
          "indexed": false,
          "internalType": "uint8",
          "name": "decimals",
          "type": "uint8"
        }
      ],
      "name": "TokenStakedUpdated",
      "type": "event"
    },
    {
      "anonymous": false,
      "inputs": [
        {
          "indexed": false,
          "internalType": "address",
          "name": "to",
          "type": "address"
        },
        {
          "indexed": false,
          "internalType": "address",
          "name": "token",
          "type": "address"
        },
        {
          "indexed": false,
          "internalType": "uint256",
          "name": "amount",
          "type": "uint256"
        }
      ],
      "name": "TokenWithdrawal",
      "type": "event"
    },
    {
      "anonymous": false,
      "inputs": [
        {
          "indexed": false,
          "internalType": "uint256",
          "name": "epoch",
          "type": "uint256"
        }
      ],
      "name": "Unpause",
      "type": "event"
    },
    {
      "anonymous": false,
      "inputs": [
        {
          "indexed": false,
          "internalType": "address",
          "name": "account",
          "type": "address"
        }
      ],
      "name": "Unpaused",
      "type": "event"
    },
    {
      "anonymous": false,
      "inputs": [
        {
          "indexed": true,
          "internalType": "address",
          "name": "implementation",
          "type": "address"
        }
      ],
      "name": "Upgraded",
      "type": "event"
    },
    {
      "inputs": [],
      "name": "admin",
      "outputs": [
        {
          "internalType": "address",
          "name": "",
          "type": "address"
        }
      ],
      "stateMutability": "view",
      "type": "function",
      "constant": true
    },
    {
      "inputs": [
        {
          "internalType": "address",
          "name": "",
          "type": "address"
        }
      ],
      "name": "claimCheckpoint",
      "outputs": [
        {
          "internalType": "uint256",
          "name": "",
          "type": "uint256"
        }
      ],
      "stateMutability": "view",
      "type": "function",
      "constant": true
    },
    {
      "inputs": [],
      "name": "counter",
      "outputs": [
        {
          "internalType": "uint256",
          "name": "",
          "type": "uint256"
        }
      ],
      "stateMutability": "view",
      "type": "function",
      "constant": true
    },
    {
      "inputs": [
        {
          "internalType": "address",
          "name": "",
          "type": "address"
        }
      ],
      "name": "currentUserEpoch",
      "outputs": [
        {
          "internalType": "uint256",
          "name": "",
          "type": "uint256"
        }
      ],
      "stateMutability": "view",
      "type": "function",
      "constant": true
    },
    {
      "inputs": [
        {
          "internalType": "uint8",
          "name": "",
          "type": "uint8"
        }
      ],
      "name": "maxBetAmount",
      "outputs": [
        {
          "internalType": "uint256",
          "name": "",
          "type": "uint256"
        }
      ],
      "stateMutability": "view",
      "type": "function",
      "constant": true
    },
    {
      "inputs": [
        {
          "internalType": "uint8",
          "name": "",
          "type": "uint8"
        }
      ],
      "name": "minBetAmount",
      "outputs": [
        {
          "internalType": "uint256",
          "name": "",
          "type": "uint256"
        }
      ],
      "stateMutability": "view",
      "type": "function",
      "constant": true
    },
    {
      "inputs": [
        {
          "internalType": "uint8",
          "name": "",
          "type": "uint8"
        }
      ],
      "name": "numbersByKindOfBet",
      "outputs": [
        {
          "internalType": "uint8",
          "name": "",
          "type": "uint8"
        }
      ],
      "stateMutability": "view",
      "type": "function",
      "constant": true
    },
    {
      "inputs": [],
      "name": "operator",
      "outputs": [
        {
          "internalType": "address",
          "name": "",
          "type": "address"
        }
      ],
      "stateMutability": "view",
      "type": "function",
      "constant": true
    },
    {
      "inputs": [],
      "name": "owner",
      "outputs": [
        {
          "internalType": "address",
          "name": "",
          "type": "address"
        }
      ],
      "stateMutability": "view",
      "type": "function",
      "constant": true
    },
    {
      "inputs": [],
      "name": "paused",
      "outputs": [
        {
          "internalType": "bool",
          "name": "",
          "type": "bool"
        }
      ],
      "stateMutability": "view",
      "type": "function",
      "constant": true
    },
    {
      "inputs": [
        {
          "internalType": "uint8",
          "name": "",
          "type": "uint8"
        }
      ],
      "name": "payout",
      "outputs": [
        {
          "internalType": "uint8",
          "name": "",
          "type": "uint8"
        }
      ],
      "stateMutability": "view",
      "type": "function",
      "constant": true
    },
    {
      "inputs": [],
      "name": "proxiableUUID",
      "outputs": [
        {
          "internalType": "bytes32",
          "name": "",
          "type": "bytes32"
        }
      ],
      "stateMutability": "view",
      "type": "function",
      "constant": true
    },
    {
      "inputs": [],
      "name": "randomNumUpdateAllowance",
      "outputs": [
        {
          "internalType": "uint256",
          "name": "",
          "type": "uint256"
        }
      ],
      "stateMutability": "view",
      "type": "function",
      "constant": true
    },
    {
      "inputs": [],
      "name": "renounceOwnership",
      "outputs": [],
      "stateMutability": "nonpayable",
      "type": "function"
    },
    {
      "inputs": [
        {
          "internalType": "uint256",
          "name": "",
          "type": "uint256"
        }
      ],
      "name": "roundInfo",
      "outputs": [
        {
          "internalType": "address",
          "name": "user",
          "type": "address"
        },
        {
          "internalType": "uint256",
          "name": "epoch",
          "type": "uint256"
        }
      ],
      "stateMutability": "view",
      "type": "function",
      "constant": true
    },
    {
      "inputs": [
        {
          "internalType": "address",
          "name": "",
          "type": "address"
        },
        {
          "internalType": "uint256",
          "name": "",
          "type": "uint256"
        }
      ],
      "name": "rounds",
      "outputs": [
        {
          "internalType": "uint256",
          "name": "roundId",
          "type": "uint256"
        },
        {
          "internalType": "uint256",
          "name": "epoch",
          "type": "uint256"
        },
        {
          "internalType": "uint256",
          "name": "totalAmountBet",
          "type": "uint256"
        },
        {
          "internalType": "uint256",
          "name": "totalRewardAmount",
          "type": "uint256"
        },
        {
          "internalType": "uint256",
          "name": "treasuryCollections",
          "type": "uint256"
        },
        {
          "internalType": "bool",
          "name": "oracleCalled",
          "type": "bool"
        },
        {
          "internalType": "uint8",
          "name": "winningNumber",
          "type": "uint8"
        },
        {
          "internalType": "bool",
          "name": "claimed",
          "type": "bool"
        }
      ],
      "stateMutability": "view",
      "type": "function",
      "constant": true
    },
    {
      "inputs": [],
      "name": "tokenDecimals",
      "outputs": [
        {
          "internalType": "uint8",
          "name": "",
          "type": "uint8"
        }
      ],
      "stateMutability": "view",
      "type": "function",
      "constant": true
    },
    {
      "inputs": [],
      "name": "tokenStaked",
      "outputs": [
        {
          "internalType": "address",
          "name": "",
          "type": "address"
        }
      ],
      "stateMutability": "view",
      "type": "function",
      "constant": true
    },
    {
      "inputs": [],
      "name": "totalVolume",
      "outputs": [
        {
          "internalType": "uint256",
          "name": "",
          "type": "uint256"
        }
      ],
      "stateMutability": "view",
      "type": "function",
      "constant": true
    },
    {
      "inputs": [
        {
          "internalType": "address",
          "name": "newOwner",
          "type": "address"
        }
      ],
      "name": "transferOwnership",
      "outputs": [],
      "stateMutability": "nonpayable",
      "type": "function"
    },
    {
      "inputs": [],
      "name": "treasuryAmount",
      "outputs": [
        {
          "internalType": "uint256",
          "name": "",
          "type": "uint256"
        }
      ],
      "stateMutability": "view",
      "type": "function",
      "constant": true
    },
    {
      "inputs": [
        {
          "internalType": "address",
          "name": "newImplementation",
          "type": "address"
        }
      ],
      "name": "upgradeTo",
      "outputs": [],
      "stateMutability": "nonpayable",
      "type": "function"
    },
    {
      "inputs": [
        {
          "internalType": "address",
          "name": "newImplementation",
          "type": "address"
        },
        {
          "internalType": "bytes",
          "name": "data",
          "type": "bytes"
        }
      ],
      "name": "upgradeToAndCall",
      "outputs": [],
      "stateMutability": "payable",
      "type": "function",
      "payable": true
    },
    {
      "inputs": [
        {
          "internalType": "bytes",
          "name": "data",
          "type": "bytes"
        },
        {
          "internalType": "address[]",
          "name": "_ownerAdminOperator",
          "type": "address[]"
        }
      ],
      "name": "initialize",
      "outputs": [],
      "stateMutability": "nonpayable",
      "type": "function"
    },
    {
      "inputs": [
        {
          "internalType": "address",
          "name": "_admin",
          "type": "address"
        }
      ],
      "name": "setAdmin",
      "outputs": [],
      "stateMutability": "nonpayable",
      "type": "function"
    },
    {
      "inputs": [
        {
          "internalType": "address",
          "name": "_operator",
          "type": "address"
        }
      ],
      "name": "setOperator",
      "outputs": [],
      "stateMutability": "nonpayable",
      "type": "function"
    },
    {
      "inputs": [
        {
          "internalType": "address",
          "name": "token",
          "type": "address"
        },
        {
          "internalType": "uint8",
          "name": "_decimals",
          "type": "uint8"
        }
      ],
      "name": "changeTokenStaked",
      "outputs": [],
      "stateMutability": "nonpayable",
      "type": "function"
    },
    {
      "inputs": [],
      "name": "getPayouts",
      "outputs": [
        {
          "internalType": "uint8[]",
          "name": "",
          "type": "uint8[]"
        }
      ],
      "stateMutability": "view",
      "type": "function",
      "constant": true
    },
    {
      "inputs": [],
      "name": "getRandomNumberOracleAdd",
      "outputs": [
        {
          "internalType": "address",
          "name": "",
          "type": "address"
        }
      ],
      "stateMutability": "view",
      "type": "function",
      "constant": true
    },
    {
      "inputs": [
        {
          "internalType": "address",
          "name": "_randomGenerator",
          "type": "address"
        }
      ],
      "name": "setRandomNumberOracleAdd",
      "outputs": [],
      "stateMutability": "nonpayable",
      "type": "function"
    },
    {
      "inputs": [
        {
          "internalType": "uint256",
          "name": "_randomNumUpdateAllowance",
          "type": "uint256"
        }
      ],
      "name": "setRandomNumUpdateAllowance",
      "outputs": [],
      "stateMutability": "nonpayable",
      "type": "function"
    },
    {
      "inputs": [
        {
          "internalType": "uint8[]",
          "name": "betType",
          "type": "uint8[]"
        },
        {
          "internalType": "uint8[]",
          "name": "_payout",
          "type": "uint8[]"
        }
      ],
      "name": "setPayout",
      "outputs": [],
      "stateMutability": "nonpayable",
      "type": "function"
    },
    {
      "inputs": [
        {
          "internalType": "uint8[]",
          "name": "betType",
          "type": "uint8[]"
        },
        {
          "internalType": "uint256[]",
          "name": "_minBetAmount",
          "type": "uint256[]"
        }
      ],
      "name": "setMinBetAmount",
      "outputs": [],
      "stateMutability": "nonpayable",
      "type": "function"
    },
    {
      "inputs": [
        {
          "internalType": "uint8[]",
          "name": "betType",
          "type": "uint8[]"
        },
        {
          "internalType": "uint256[]",
          "name": "_maxBetAmount",
          "type": "uint256[]"
        }
      ],
      "name": "setMaxBetAmount",
      "outputs": [],
      "stateMutability": "nonpayable",
      "type": "function"
    },
    {
      "inputs": [],
      "name": "getRandomRoundId",
      "outputs": [
        {
          "internalType": "uint256",
          "name": "",
          "type": "uint256"
        }
      ],
      "stateMutability": "view",
      "type": "function",
      "constant": true
    },
    {
      "inputs": [
        {
          "components": [
            {
              "internalType": "uint8",
              "name": "betType",
              "type": "uint8"
            },
            {
              "internalType": "uint8",
              "name": "differentiator",
              "type": "uint8"
            },
            {
              "internalType": "uint8[]",
              "name": "numbers",
              "type": "uint8[]"
            },
            {
              "internalType": "uint256",
              "name": "amount",
              "type": "uint256"
            }
          ],
          "internalType": "struct Roulette.Bet[]",
          "name": "bets",
          "type": "tuple[]"
        }
      ],
      "name": "executeRound",
      "outputs": [],
      "stateMutability": "nonpayable",
      "type": "function"
    },
    {
      "inputs": [
        {
          "internalType": "uint256",
          "name": "epoch",
          "type": "uint256"
        }
      ],
      "name": "claim",
      "outputs": [],
      "stateMutability": "nonpayable",
      "type": "function"
    },
    {
      "inputs": [],
      "name": "claimAll",
      "outputs": [],
      "stateMutability": "nonpayable",
      "type": "function"
    },
    {
      "inputs": [],
      "name": "claimTreasury",
      "outputs": [],
      "stateMutability": "nonpayable",
      "type": "function"
    },
    {
      "inputs": [],
      "name": "pause",
      "outputs": [
        {
          "internalType": "bool",
          "name": "",
          "type": "bool"
        }
      ],
      "stateMutability": "nonpayable",
      "type": "function"
    },
    {
      "inputs": [],
      "name": "unpause",
      "outputs": [
        {
          "internalType": "bool",
          "name": "",
          "type": "bool"
        }
      ],
      "stateMutability": "nonpayable",
      "type": "function"
    },
    {
      "inputs": [
        {
          "internalType": "address",
          "name": "user",
          "type": "address"
        },
        {
          "internalType": "uint256",
          "name": "epoch",
          "type": "uint256"
        }
      ],
      "name": "claimable",
      "outputs": [
        {
          "internalType": "bool",
          "name": "",
          "type": "bool"
        },
        {
          "internalType": "uint256",
          "name": "",
          "type": "uint256"
        }
      ],
      "stateMutability": "view",
      "type": "function",
      "constant": true
    },
    {
      "inputs": [
        {
          "internalType": "address",
          "name": "user",
          "type": "address"
        }
      ],
      "name": "totalClaimable",
      "outputs": [
        {
          "internalType": "bool",
          "name": "",
          "type": "bool"
        },
        {
          "internalType": "uint256",
          "name": "",
          "type": "uint256"
        }
      ],
      "stateMutability": "view",
      "type": "function",
      "constant": true
    },
    {
      "inputs": [
        {
          "internalType": "address",
          "name": "user",
          "type": "address"
        },
        {
          "internalType": "uint256",
          "name": "epoch",
          "type": "uint256"
        }
      ],
      "name": "refundable",
      "outputs": [
        {
          "internalType": "bool",
          "name": "",
          "type": "bool"
        }
      ],
      "stateMutability": "view",
      "type": "function",
      "constant": true
    },
    {
      "inputs": [
        {
          "internalType": "address",
          "name": "token",
          "type": "address"
        }
      ],
      "name": "withdrawAllTokens",
      "outputs": [],
      "stateMutability": "nonpayable",
      "type": "function"
    },
    {
      "inputs": [
        {
          "internalType": "address",
          "name": "token",
          "type": "address"
        },
        {
          "internalType": "uint256",
          "name": "amount",
          "type": "uint256"
        }
      ],
      "name": "withdrawToken",
      "outputs": [],
      "stateMutability": "nonpayable",
      "type": "function"
    },
    {
      "inputs": [],
      "name": "withdrawAllNative",
      "outputs": [],
      "stateMutability": "nonpayable",
      "type": "function"
    },
    {
      "inputs": [
        {
          "internalType": "uint256",
          "name": "amount",
          "type": "uint256"
        }
      ],
      "name": "withdrawNative",
      "outputs": [],
      "stateMutability": "nonpayable",
      "type": "function"
    }
  ],
  "bytecode": "0x60a06040523060601b60805234801561001757600080fd5b5060805160601c614c3b61005260003960008181610d4201528181610d8201528181611166015281816111a601526112390152614c3b6000f3fe6080604052600436106102925760003560e01c806361bc221a1161015a5780639e281a98116100c1578063d1058e591161007a578063d1058e59146108e7578063dc2932e8146108fc578063de6553eb1461091c578063f2fde38b1461093c578063f6d03e3c1461095c578063f851a4401461097357600080fd5b80639e281a9814610785578063a878aee6146107a5578063b3ab15fb146107c5578063b59c46fb146107e5578063bdc0475914610899578063c16b4d71146108c757600080fd5b80637cff8d1c116101135780637cff8d1c146106c457806384276d81146106e45780638456cb59146107045780638a17edfa146107195780638aee7286146107475780638da5cb5b1461076757600080fd5b806361bc221a1461061657806369171ede1461062d5780636bf90c841461064d578063704b6c021461066f578063715018a61461068f57806379c223a9146106a457600080fd5b80633b97e856116101fe578063518f49d8116101b7578063518f49d81461057057806352d1902d14610591578063570ca735146105a65780635c975abb146105c75780635f81a57c146105df57806360efe334146105f657600080fd5b80633b97e856146104915780633d8df3af146104b35780633f4ba83a146104d3578063427f0b00146104e8578063482fe024146105485780634f1ef2861461055d57600080fd5b8063214808991161025057806321480899146103ae5780632550150b146103dc5780633659cfe61461040c578063368acb091461042c578063379607f5146104435780633948f4c91461046357600080fd5b80623bdc7414610297578063149611f4146102ae578063153f2b4b146102d65780631dfce5c6146103195780631f3043eb14610350578063213b14021461037d575b600080fd5b3480156102a357600080fd5b506102ac610994565b005b3480156102ba57600080fd5b506102c3610a6a565b6040519081526020015b60405180910390f35b3480156102e257600080fd5b506103076102f1366004614323565b61012d6020526000908152604090205460ff1681565b60405160ff90911681526020016102cd565b34801561032557600080fd5b50610339610334366004613fdc565b610b1e565b6040805192151583526020830191909152016102cd565b34801561035c57600080fd5b50610365610c40565b6040516001600160a01b0390911681526020016102cd565b34801561038957600080fd5b50610307610398366004614323565b6101306020526000908152604090205460ff1681565b3480156103ba57600080fd5b506102c36103c9366004613fdc565b6101346020526000908152604090205481565b3480156103e857600080fd5b506103fc6103f7366004614110565b610cf1565b60405190151581526020016102cd565b34801561041857600080fd5b506102ac610427366004613fdc565b610d37565b34801561043857600080fd5b506102c36101385481565b34801561044f57600080fd5b506102ac61045e3660046142dc565b610e17565b34801561046f57600080fd5b506102c361047e366004614323565b61012f6020526000908152604090205481565b34801561049d57600080fd5b5061013d5461030790600160a01b900460ff1681565b3480156104bf57600080fd5b506102ac6104ce3660046142dc565b610ffa565b3480156104df57600080fd5b506103fc611065565b3480156104f457600080fd5b506105296105033660046142dc565b61013160205260009081526040902080546001909101546001600160a01b039091169082565b604080516001600160a01b0390931683526020830191909152016102cd565b34801561055457600080fd5b506102ac611126565b6102ac61056b36600461404c565b61115b565b34801561057c57600080fd5b5061013d54610365906001600160a01b031681565b34801561059d57600080fd5b506102c361122c565b3480156105b257600080fd5b5061013654610365906001600160a01b031681565b3480156105d357600080fd5b5060335460ff166103fc565b3480156105eb57600080fd5b506102c361013a5481565b34801561060257600080fd5b50610339610611366004614110565b6112df565b34801561062257600080fd5b506102c36101375481565b34801561063957600080fd5b506102ac6106483660046141b7565b6113e1565b34801561065957600080fd5b50610662611626565b6040516102cd919061441c565b34801561067b57600080fd5b506102ac61068a366004613fdc565b6116b2565b34801561069b57600080fd5b506102ac611765565b3480156106b057600080fd5b506102ac6106bf36600461425e565b61179b565b3480156106d057600080fd5b506102ac6106df366004614175565b611f5c565b3480156106f057600080fd5b506102ac6106ff3660046142dc565b6121b1565b34801561071057600080fd5b506103fc612333565b34801561072557600080fd5b506102c3610734366004613fdc565b6101336020526000908152604090205481565b34801561075357600080fd5b506102ac6107623660046141b7565b6123c0565b34801561077357600080fd5b5060fb546001600160a01b0316610365565b34801561079157600080fd5b506102ac6107a0366004614110565b6125f7565b3480156107b157600080fd5b506102ac6107c0366004613fdc565b612763565b3480156107d157600080fd5b506102ac6107e0366004613fdc565b612814565b3480156107f157600080fd5b50610857610800366004614110565b610132602090815260009283526040808420909152908252902080546001820154600383015460048401546005850154600690950154939492939192909160ff808216916101008104821691620100009091041688565b6040805198895260208901979097529587019490945260608601929092526080850152151560a084015260ff1660c0830152151560e0820152610100016102cd565b3480156108a557600080fd5b506102c36108b4366004614323565b61012e6020526000908152604090205481565b3480156108d357600080fd5b506102ac6108e2366004613fdc565b6128c0565b3480156108f357600080fd5b506102ac612934565b34801561090857600080fd5b506102ac61091736600461413c565b612a52565b34801561092857600080fd5b506102ac6109373660046141b7565b612af9565b34801561094857600080fd5b506102ac610957366004613fdc565b612c88565b34801561096857600080fd5b506102c361013b5481565b34801561097f57600080fd5b5061013554610365906001600160a01b031681565b610135546001600160a01b031633146109c85760405162461bcd60e51b81526004016109bf906146b4565b60405180910390fd5b60006101385411610a125760405162461bcd60e51b815260206004820152601460248201527316995c9bc81d1c99585cdd5c9e48185b5bdd5b9d60621b60448201526064016109bf565b6101388054600090915561013554610a33906001600160a01b031682612d20565b6040518181527f609175abb7f12481e4f200d1ef4fc834e6caac3d9eadba42d664352f6d0932ca906020015b60405180910390a150565b6000610a7e60fb546001600160a01b031690565b6001600160a01b0316336001600160a01b03161480610aa85750610135546001600160a01b031633145b80610abe5750610136546001600160a01b031633145b610b165760405162461bcd60e51b8152602060048201526024808201527f526f756c657474653a20556e617574686f72697a65642066756e6374696f6e2060448201526318d85b1b60e21b60648201526084016109bf565b506101395490565b6001600160a01b03811660009081526101346020526040812054819081908190610b49906001612d38565b90505b6001600160a01b038516600090815261013360205260409020548111610c23576001600160a01b03851660009081526101326020908152604080832084845290915290206006015462010000900460ff16610c1157600080610bae87846112df565b915091508115610bc957610bc28482612d38565b9350610c0e565b610bd38784610cf1565b15610c0e576001600160a01b038716600090815261013260209081526040808320868452909152902060030154610c0b908590612d38565b93505b50505b80610c1b81614a6a565b915050610b4c565b5080610c355750600093849350915050565b600194909350915050565b6000610c5460fb546001600160a01b031690565b6001600160a01b0316336001600160a01b03161480610c7e5750610135546001600160a01b031633145b80610c945750610136546001600160a01b031633145b610ce05760405162461bcd60e51b815260206004820152601d60248201527f526f756c657474653a20756e617574686f72697a65642061636365737300000060448201526064016109bf565b5061013c546001600160a01b031690565b6001600160a01b0382166000908152610132602090815260408083208484529091528120600381015415801590610d2d5750600681015460ff16155b9150505b92915050565b306001600160a01b037f0000000000000000000000000000000000000000000000000000000000000000161415610d805760405162461bcd60e51b81526004016109bf9061452a565b7f00000000000000000000000000000000000000000000000000000000000000006001600160a01b0316610dc9600080516020614bbf833981519152546001600160a01b031690565b6001600160a01b031614610def5760405162461bcd60e51b81526004016109bf906145ab565b610df881612d4b565b60408051600080825260208201909252610e1491839190612d75565b50565b333b15610e365760405162461bcd60e51b81526004016109bf90614686565b333214610e555760405162461bcd60e51b81526004016109bf90614496565b600260c9541415610e785760405162461bcd60e51b81526004016109bf90614724565b600260c9553360009081526101326020908152604080832084845290915290206006015462010000900460ff1615610ee45760405162461bcd60e51b815260206004820152600f60248201526e14995dd85c991cc818db185a5b5959608a1b60448201526064016109bf565b600080610ef133846112df565b915091508180610f065750610f063384610cf1565b610f525760405162461bcd60e51b815260206004820152601b60248201527f4e6f7420636c61696d61626c65206f7220726566756e6461626c65000000000060448201526064016109bf565b610f5c3384610cf1565b15610f825750336000908152610132602090815260408083208584529091529020600301545b336000818152610132602090815260408083208784529091529020600601805462ff0000191662010000179055610fb99082612d20565b604051818152839033907f34fcbac0073d7c3d388e51312faf357774904998eeb8fca628b9e6f65ee1cbf79060200160405180910390a35050600160c95550565b610135546001600160a01b031633146110255760405162461bcd60e51b81526004016109bf906146b4565b61013b8190556101375460408051918252602082018390527f91468f876874ad3a066a452908933a03e2cb1ccfc58171e035732870709bc5039101610a5f565b610135546000906001600160a01b031633146110935760405162461bcd60e51b81526004016109bf906146b4565b60335460ff166110dc5760405162461bcd60e51b815260206004820152601460248201527314185d5cd8589b194e881b9bdd081c185d5cd95960621b60448201526064016109bf565b6110e4612ef4565b7faaa520fdd7d2c83061d632fa017b0432407e798818af63ea908589fceda39ab76101375460405161111891815260200190565b60405180910390a150600190565b610135546001600160a01b031633146111515760405162461bcd60e51b81526004016109bf906146b4565b47610e14816121b1565b306001600160a01b037f00000000000000000000000000000000000000000000000000000000000000001614156111a45760405162461bcd60e51b81526004016109bf9061452a565b7f00000000000000000000000000000000000000000000000000000000000000006001600160a01b03166111ed600080516020614bbf833981519152546001600160a01b031690565b6001600160a01b0316146112135760405162461bcd60e51b81526004016109bf906145ab565b61121c82612d4b565b61122882826001612d75565b5050565b6000306001600160a01b037f000000000000000000000000000000000000000000000000000000000000000016146112cc5760405162461bcd60e51b815260206004820152603860248201527f555550535570677261646561626c653a206d757374206e6f742062652063616c60448201527f6c6564207468726f7567682064656c656761746563616c6c000000000000000060648201526084016109bf565b50600080516020614bbf83398151915290565b6001600160a01b0382166000908152610132602090815260408083208484529091528120600681015482919062010000900460ff16156113265760008092509250506113da565b6006810154610100900460ff166000805b60078160ff1610156113be5760ff808216600090815261012d60205260409020546113aa916113a39161136c91166001614808565b60ff86811660009081526007890160209081526040808320888516845261012d835281842054851684529091529020549116612f87565b8390612d38565b9150806113b681614a85565b915050611337565b50600683015460ff1680156113d35750600081115b9450925050505b9250929050565b610135546001600160a01b0316331461140c5760405162461bcd60e51b81526004016109bf906146b4565b828114801561141c575060078311155b6114385760405162461bcd60e51b81526004016109bf90614576565b60005b60ff81168411156115ca57600785858360ff1681811061145d5761145d614abb565b90506020020160208101906114729190614323565b60ff16106114925760405162461bcd60e51b81526004016109bf906144cd565b61012f600086868460ff168181106114ac576114ac614abb565b90506020020160208101906114c19190614323565b60ff1660ff1681526020019081526020016000205483838360ff168181106114eb576114eb614abb565b9050602002013511156115595760405162461bcd60e51b815260206004820152603060248201527f526f756c657474653a206d696e426574416d6f756e742073686f756c6420626560448201526f080f0f481b585e10995d105b5bdd5b9d60821b60648201526084016109bf565b82828260ff1681811061156e5761156e614abb565b9050602002013561012e600087878560ff1681811061158f5761158f614abb565b90506020020160208101906115a49190614323565b60ff168152602081019190915260400160002055806115c281614a85565b91505061143b565b5083836040516115db929190614340565b6040518091039020610137547ff383865f73d1e1e26716bfa855d83a847055bfedffd2d12384534744d123813d8484604051611618929190614398565b60405180910390a350505050565b6040805160078082526101008201909252606091600091906020820160e08036833701905050905060005b60078160ff1610156116ac5760ff808216600081815261012d60205260409020548451921691849190811061168857611688614abb565b60ff90921660209283029190910190910152806116a481614a85565b915050611651565b50919050565b60fb546001600160a01b031633146116dc5760405162461bcd60e51b81526004016109bf90614651565b6001600160a01b0381166117025760405162461bcd60e51b81526004016109bf90614621565b61013580546001600160a01b038381166001600160a01b031983168117909355604080519190921680825260208201939093527f7e644d79422f17c01e4894b5f4f588d331ebfa28653d42ae832dc59e38c9798f91015b60405180910390a15050565b60fb546001600160a01b0316331461178f5760405162461bcd60e51b81526004016109bf90614651565b6117996000612f93565b565b600054610100900460ff166117b65760005460ff16156117ba565b303b155b61181d5760405162461bcd60e51b815260206004820152602e60248201527f496e697469616c697a61626c653a20636f6e747261637420697320616c72656160448201526d191e481a5b9a5d1a585b1a5e995960921b60648201526084016109bf565b600054610100900460ff1615801561183f576000805461ffff19166101011790555b611847612fe5565b61184f613014565b611857613043565b6118828383600081811061186d5761186d614abb565b90506020020160208101906109579190613fdc565b8282600181811061189557611895614abb565b90506020020160208101906118aa9190613fdc565b61013580546001600160a01b0319166001600160a01b0392909216919091179055828260028181106118de576118de614abb565b90506020020160208101906118f39190613fdc565b61013680546001600160a01b03929092166001600160a01b03199092169190911790557f363eca0a79dc8ec297995f86b12cc61391ff0de52f1ba01ca23e9716f742e413805460ff199081166012179091557fe2b6217f4c97aa68f5160f7d6659df601bbb6b6328ba78b8ab41ee5c6e7d7a5980548216600c1790557fea19767d888507d04480e03c5531fa09d724e33807f1d26eef5602518076ecd08054821660069081179091557f3122fe5b7d531425375ebfbec0198c35c854cd3c1f71c808c2cc488a3513b22b8054831660041790557faabcafbbeb8d2dab90059ed5ad988783878c7575541ea9b716c257cfc1cdcfef8054831660031790557f83a5379495bafbb8928e1d214d457380d68533cfd67f128d8c6479903eaf4d6e8054831660029081179091557fe4e0b48a604c6350c5e15d99f1e3d11b362e568ca22e631032d954164ef4560180548416600190811790915561012d6020527fa581b17bfc4d6578e300cafbf34fd2dc1fef0270d8c73f88a99dcde2859a66398054851690911790557fe278171178ecf2583e4e9c73c9a18d3ff0f6142f8f9926be1eba7c0b61591f508054841690911790557fb114c5a84345a4dcec681cd96c82d9999793302158b218b3096e60eca235e2db8054831660051790557fd9495049dee3e6934b44f75a365d1637a19c5c4a773e43815c83fd58cdf50cb48054831660081790557f2649c796d0213cd7ab10b062403086fe4f7a383b9238e208d2820d607d6f2bdb80548316600b1790557fac00419b81cd86b3479ac535027b5e2eee48e4a3b36c57fd9df5dcdd56a566c080548316601117905560009081527f4e458acb45f190090eb5efcba2667a10ede10f4976f4888ff786677a10db46b28054909216602317909155808080611b8c888a018a613ff9565b61013d80546001600160a01b038681166001600160a81b031990921691909117600160a01b60ff8716021790915561013c80546001600160a01b03191691831691909117905561013b82905592965090945092509050611bed83600a614870565b6000805261012e6020527f05487a880b40ff61e5c065c22c3608319ddddfc383570aaf3e5899db942a555e55611c2483600a614870565b600160005261012e6020527f78e0405325e9e59eff68beeb0258e598ac7e6900874305b6bed7bce1fce6e25155611c5c83600a614870565b600260005261012e6020527f400769d5c29c672818e686949d361a922486399787bf7ace9efee61b64613dea55611c9483600a614870565b600360005261012e6020527fccb78303f1061eb3b75ee3d649f730d5a119aee255fe5d8fe5a197dcd27df65255611ccc83600a614870565b600460005261012e6020527fa135932be7035866fe2486eaf59b5fcdb540af50eae05b6087a7066fe7aee3d255611d0483600a614870565b600560005261012e6020527f7b5e2a2921fcee941ffcb62b67b9dfc1ae9224791915bb37e5756beaeab86a7d55611d3c83600a614870565b600660005261012e6020527f9047bba89121e89e5d86e8366afbc408a290f8c69e73c300bcf01a4dec5b779b55611d7483600a614870565b611d7f90606461491b565b6000805261012f6020527fe9104285c6851efcbc5e0e70440200efbdcab556a1c8784776780f8bb44f293155611db683600a614870565b611dc190605061491b565b600160005261012f6020527fd827e4f4260d40048f690f58ae5d0afff32b544267edbfaaef2e1c102dc5f5c155611df983600a614870565b611e0490604661491b565b600260005261012f6020527f45bd7956d702ab226b2ba8d73529129b53840efd6db995e5e24bc4d00e35a1d355611e3c83600a614870565b611e4790603c61491b565b600360005261012f6020527faee696e4ea6149c4993ab9cbc96504dd0850cd761ef42abf7bfafdbc33b9654955611e7f83600a614870565b611e8a90603261491b565b600460005261012f6020527fd71fc07ac1b855f4bfafcd08655d852fd426078e4b32e202f861559f1174e48955611ec283600a614870565b611ecd90602861491b565b600560005261012f6020527f20fd249e5d517468f2e74cf2ee0ac2ba2eb70c24d387a5d12699a176fe68d06455611f0583600a614870565b611f1090601461491b565b600660005261012f6020527fd5ba6804aba8ecb2419820729d01f268901f5d94bec07b046c2e3e83baa22f1d55505082159150611f559050576000805461ff00191690555b5050505050565b600260c9541415611f7f5760405162461bcd60e51b81526004016109bf90614724565b600260c95560335460ff1615611fa75760405162461bcd60e51b81526004016109bf906145f7565b61013754611fb6906001612d38565b610137553360009081526101336020526040902054611fd6906001612d38565b33600090815261013360209081526040808320849055610132825280832084845290915281206101375481556001810192909255600390910155600061201a613072565b90506120273384846131d7565b33600081815261013360208181526040808420805461013284528286209086528352908420600601805460ff1960ff8916610100021661ffff1990911617600117905592849052525461207a919061384f565b604080518082018252338082526000818152610133602081815285832080548287019081526101375485526101318352968420955186546001600160a01b0319166001600160a01b0390911617865595516001958601559282529091529154111561211e57336000908152610132602090815260408083206101339092528220549091906121099060016139bf565b81526020019081526020016000206000015490505b336000818152610133602090815260408083205461013754610132845282852082865284529382902060038101546004820154600590920154845160ff8b16815295860189905293850152606084015260808301919091529291907f0cd62fe437992130aa364237444eeaf66bc373758efaeab6b062869f88fd4ed49060a00160405180910390a45050600160c9555050565b610135546001600160a01b031633146121dc5760405162461bcd60e51b81526004016109bf906146b4565b47818110156122425760405162461bcd60e51b815260206004820152602c60248201527f62616c616e616365206f66206e617469766520746f6b656e20696e20636f6e7460448201526b7261637420746f6f206c6f7760a01b60648201526084016109bf565b610135546040516000916001600160a01b03169084908381818185875af1925050503d8060008114612290576040519150601f19603f3d011682016040523d82523d6000602084013e612295565b606091505b50509050806122e65760405162461bcd60e51b815260206004820181905260248201527f4661696c75726520696e206e617469766520746f6b656e207472616e7366657260448201526064016109bf565b61013554604080516001600160a01b039092168252602082018590527f2c876ecb97b3c6854f2488d373403f903eacb800e51c159a5c0c7a9c857e482791015b60405180910390a1505050565b610135546000906001600160a01b031633146123615760405162461bcd60e51b81526004016109bf906146b4565b60335460ff16156123845760405162461bcd60e51b81526004016109bf906145f7565b61238c6139cb565b7f68b095021b1f40fe513109f513c66692f0b3219aee674a69f4efc57badb8201d6101375460405161111891815260200190565b610135546001600160a01b031633146123eb5760405162461bcd60e51b81526004016109bf906146b4565b82811480156123fb575060078311155b6124175760405162461bcd60e51b81526004016109bf90614576565b60005b60ff81168411156125a957600785858360ff1681811061243c5761243c614abb565b90506020020160208101906124519190614323565b60ff16106124715760405162461bcd60e51b81526004016109bf906144cd565b82828260ff1681811061248657612486614abb565b9050602002013561012e600087878560ff168181106124a7576124a7614abb565b90506020020160208101906124bc9190614323565b60ff1660ff1681526020019081526020016000205411156125385760405162461bcd60e51b815260206004820152603060248201527f526f756c657474653a206d6178426574416d6f756e742073686f756c6420626560448201526f080f8f481b5a5b90995d105b5bdd5b9d60821b60648201526084016109bf565b82828260ff1681811061254d5761254d614abb565b9050602002013561012f600087878560ff1681811061256e5761256e614abb565b90506020020160208101906125839190614323565b60ff168152602081019190915260400160002055806125a181614a85565b91505061241a565b5083836040516125ba929190614340565b6040518091039020610137547f1bf01708b01fba47c22be28c252449ffc7f82e1648a328568dfe7e5627443ea78484604051611618929190614398565b610135546001600160a01b031633146126225760405162461bcd60e51b81526004016109bf906146b4565b6040516370a0823160e01b81523060048201526000906001600160a01b038416906370a082319060240160206040518083038186803b15801561266457600080fd5b505afa158015612678573d6000803e3d6000fd5b505050506040513d601f19601f8201168201806040525081019061269c9190614245565b9050818110156126fc5760405162461bcd60e51b815260206004820152602560248201527f62616c616e616365206f6620746f6b656e20696e20636f6e747261637420746f6044820152646f206c6f7760d81b60648201526084016109bf565b61013554612717906001600160a01b03858116911684613a23565b61013554604080516001600160a01b039283168152918516602083015281018390527f42856d0378dde02337bb59ae41747abc77ded8ebdbbc5cbdd1e53693b755493890606001612326565b610135546001600160a01b0316331461278e5760405162461bcd60e51b81526004016109bf906146b4565b6040516370a0823160e01b81523060048201526000906001600160a01b038316906370a082319060240160206040518083038186803b1580156127d057600080fd5b505afa1580156127e4573d6000803e3d6000fd5b505050506040513d601f19601f820116820180604052508101906128089190614245565b905061122882826125f7565b610135546001600160a01b0316331461283f5760405162461bcd60e51b81526004016109bf906146b4565b6001600160a01b0381166128655760405162461bcd60e51b81526004016109bf90614621565b61013680546001600160a01b038381166001600160a01b031983168117909355604080519190921680825260208201939093527fd58299b712891143e76310d5e664c4203c940a67db37cf856bdaa3c5c76a802c9101611759565b610135546001600160a01b031633146128eb5760405162461bcd60e51b81526004016109bf906146b4565b6001600160a01b0381166129115760405162461bcd60e51b81526004016109bf90614621565b61013c80546001600160a01b0319166001600160a01b0392909216919091179055565b333b156129535760405162461bcd60e51b81526004016109bf90614686565b3332146129725760405162461bcd60e51b81526004016109bf90614496565b600260c95414156129955760405162461bcd60e51b81526004016109bf90614724565b600260c9556000806129a633610b1e565b91509150816129e75760405162461bcd60e51b815260206004820152600d60248201526c4e6f7420636c61696d61626c6560981b60448201526064016109bf565b6129f13382612d20565b3360008181526101336020818152604080842054610134835293819020849055918152815192835282018490527fe5b519eccad60ea5af710c9c7792f84934cb83d5c13f3cf5cfc68432d56882c2910160405180910390a25050600160c955565b610135546001600160a01b03163314612a7d5760405162461bcd60e51b81526004016109bf906146b4565b61013d805460ff8316600160a01b026001600160a81b03199091166001600160a01b03851617179055610137546040517f39174ed3ef40bb292fb095c08f402d540199c39784206653ddf0554dc6d5bb839161175991859085909283526001600160a01b0391909116602083015260ff16604082015260600190565b610135546001600160a01b03163314612b245760405162461bcd60e51b81526004016109bf906146b4565b8281148015612b34575060078311155b612b505760405162461bcd60e51b81526004016109bf90614576565b60005b60ff8116841115612c3a57600785858360ff16818110612b7557612b75614abb565b9050602002016020810190612b8a9190614323565b60ff1610612baa5760405162461bcd60e51b81526004016109bf906144cd565b82828260ff16818110612bbf57612bbf614abb565b9050602002016020810190612bd49190614323565b61012d600087878560ff16818110612bee57612bee614abb565b9050602002016020810190612c039190614323565b60ff90811682526020820192909252604001600020805460ff19169290911691909117905580612c3281614a85565b915050612b53565b508383604051612c4b929190614340565b6040518091039020610137547f839f4167982dee86a4b2494ef5559f483b9747ccdebba512b9851a154a146b2c84846040516116189291906143d4565b60fb546001600160a01b03163314612cb25760405162461bcd60e51b81526004016109bf90614651565b6001600160a01b038116612d175760405162461bcd60e51b815260206004820152602660248201527f4f776e61626c653a206e6577206f776e657220697320746865207a65726f206160448201526564647265737360d01b60648201526084016109bf565b610e1481612f93565b61013d54611228906001600160a01b03168383613a23565b6000612d4482846147f0565b9392505050565b60fb546001600160a01b03163314610e145760405162461bcd60e51b81526004016109bf90614651565b7f4910fdfa16fed3260ed0e7147f7cc6da11a60208b5b9406d12a635614ffd91435460ff1615612dad57612da883613a86565b505050565b826001600160a01b03166352d1902d6040518163ffffffff1660e01b815260040160206040518083038186803b158015612de657600080fd5b505afa925050508015612e16575060408051601f3d908101601f19168201909252612e1391810190614245565b60015b612e795760405162461bcd60e51b815260206004820152602e60248201527f45524331393637557067726164653a206e657720696d706c656d656e7461746960448201526d6f6e206973206e6f74205555505360901b60648201526084016109bf565b600080516020614bbf8339815191528114612ee85760405162461bcd60e51b815260206004820152602960248201527f45524331393637557067726164653a20756e737570706f727465642070726f786044820152681a58589b195555525160ba1b60648201526084016109bf565b50612da8838383613b22565b60335460ff16612f3d5760405162461bcd60e51b815260206004820152601460248201527314185d5cd8589b194e881b9bdd081c185d5cd95960621b60448201526064016109bf565b6033805460ff191690557f5db9ee0a495bf2e6ff9c91a7834c1ba4fdd244a5e8aa4e537bd38aeae4b073aa335b6040516001600160a01b03909116815260200160405180910390a1565b6000612d44828461491b565b60fb80546001600160a01b038381166001600160a01b0319831681179093556040519116919082907f8be0079c531659141344cd1fd0a4f28419497f9722a3daafe3b4186f6b6457e090600090a35050565b600054610100900460ff1661300c5760405162461bcd60e51b81526004016109bf906146d9565b611799613b47565b600054610100900460ff1661303b5760405162461bcd60e51b81526004016109bf906146d9565b611799613b77565b600054610100900460ff1661306a5760405162461bcd60e51b81526004016109bf906146d9565b611799613baa565b60008061308b61013b5442612d3890919063ffffffff16565b61013c54604051639bbf750160e01b815260256004820152919250600091829182916001600160a01b0390911690639bbf750190602401606060405180830381600087803b1580156130dc57600080fd5b505af11580156130f0573d6000803e3d6000fd5b505050506040513d601f19601f8201168201806040525081019061311491906142f5565b925092509250838111156131765760405162461bcd60e51b8152602060048201526024808201527f4f7261636c6520757064617465206578636565646564206d617820616c6c6f77604482015263616e636560e01b60648201526084016109bf565b610139548310156131c95760405162461bcd60e51b815260206004820152601e60248201527f4f7261636c652075706461746520726f756e644964203c206f6c64206964000060448201526064016109bf565b506101399190915592915050565b60335460ff16156131fa5760405162461bcd60e51b81526004016109bf906145f7565b333b156132195760405162461bcd60e51b81526004016109bf90614686565b3332146132385760405162461bcd60e51b81526004016109bf90614496565b6001600160a01b03831660009081526101326020908152604080832033845261013383528184205484529091528120905b60ff8116831115613826578160020184848360ff1681811061328d5761328d614abb565b905060200281019061329f91906147da565b8154600181018355600092835260209092209091600302016132c18282614af4565b5050600084848360ff168181106132da576132da614abb565b90506020028101906132ec91906147da565b6132fa906020810190614323565b9050600085858460ff1681811061331357613313614abb565b905060200281019061332591906147da565b613336906040810190602001614323565b905060ff82166133825760ff8116158061335357508060ff166001145b8061336157508060ff166002145b61337d5760405162461bcd60e51b81526004016109bf9061475b565b6133eb565b8160ff166001148061339757508160ff166004145b156133ca5760ff8116158061336157508060ff1660011461337d5760405162461bcd60e51b81526004016109bf9061475b565b60ff8116156133eb5760405162461bcd60e51b81526004016109bf9061475b565b60078260ff161061340e5760405162461bcd60e51b81526004016109bf906144cd565b60ff808316600090815261012e60205260409020549087908790861681811061343957613439614abb565b905060200281019061344b91906147da565b606001351015801561349c575060ff808316600090815261012f60205260409020549087908790861681811061348357613483614abb565b905060200281019061349591906147da565b6060013511155b61352b5760405162461bcd60e51b815260206004820152605460248201527f526f756c657474653a20416d6f756e74203c204d696e426574416d6f756e742060448201527f6f7220416d6f756e74203e204d6178426574416d6f756e7420666f722061746c60648201527365617374206f6e65206f6620746865206265747360601b608482015260a4016109bf565b60ff8083166000908152610130602052604090205481169087908790861681811061355857613558614abb565b905060200281019061356a91906147da565b613578906040810190614790565b9050146135e55760405162461bcd60e51b815260206004820152603560248201527f526f756c657474653a20696e76616c696420656e747279206f66206e756d62656044820152741c9cc81a5b88185d1b19585cdd081bdb994818995d605a1b60648201526084016109bf565b60ff808316600090815261012d6020526040812054909116905b87878660ff1681811061361457613614614abb565b905060200281019061362691906147da565b613634906040810190614790565b90508160ff161015613794576136fb88888760ff1681811061365857613658614abb565b905060200281019061366a91906147da565b606001358760070160008b8b8a60ff1681811061368957613689614abb565b905060200281019061369b91906147da565b6136a9906040810190614790565b8660ff168181106136bc576136bc614abb565b90506020020160208101906136d19190614323565b60ff9081168252602080830193909352604091820160009081209188168152925290205490612d38565b8660070160008a8a8960ff1681811061371657613716614abb565b905060200281019061372891906147da565b613736906040810190614790565b8560ff1681811061374957613749614abb565b905060200201602081019061375e9190614323565b60ff908116825260208083019390935260409182016000908120918716815292529020558061378c81614a85565b9150506135ff565b506137ce87878660ff168181106137ad576137ad614abb565b90506020028101906137bf91906147da565b60038701549060600135612d38565b600386015561380b878760ff87168181106137eb576137eb614abb565b90506020028101906137fd91906147da565b61013a549060600135612d38565b61013a555082915061381e905081614a85565b915050613269565b50600381015461013d54613849916001600160a01b039091169086903090613bd8565b50505050565b6001600160a01b038216600090815261013260209081526040808320848452909152902060040154156138b95760405162461bcd60e51b815260206004820152601260248201527114995dd85c991cc818d85b18dd5b185d195960721b60448201526064016109bf565b6001600160a01b03821660009081526101326020908152604080832084845290915281206006810154909161010090910460ff169080805b60078160ff1610156139785760ff808216600090815261012d60205260409020546139649161395d9161392691166001614808565b60ff878116600090815260078a0160209081526040808320888516845261012d835281842054851684529091529020549116612f87565b8490612d38565b92508061397081614a85565b9150506138f1565b5060048401829055600384015482101561399e57600384015461399b90836139bf565b90505b60058401819055610138546139b39082612d38565b61013855505050505050565b6000612d44828461493a565b60335460ff16156139ee5760405162461bcd60e51b81526004016109bf906145f7565b6033805460ff191660011790557f62e78cea01bee320cd4e420270b5ea74000d11b0c9f74754ebdbfc544b05a258612f6a3390565b6040516001600160a01b038316602482015260448101829052612da890849063a9059cbb60e01b906064015b60408051601f198184030181529190526020810180516001600160e01b03166001600160e01b031990931692909217909152613c10565b6001600160a01b0381163b613af35760405162461bcd60e51b815260206004820152602d60248201527f455243313936373a206e657720696d706c656d656e746174696f6e206973206e60448201526c1bdd08184818dbdb9d1c9858dd609a1b60648201526084016109bf565b600080516020614bbf83398151915280546001600160a01b0319166001600160a01b0392909216919091179055565b613b2b83613ce2565b600082511180613b385750805b15612da8576138498383613d22565b600054610100900460ff16613b6e5760405162461bcd60e51b81526004016109bf906146d9565b61179933612f93565b600054610100900460ff16613b9e5760405162461bcd60e51b81526004016109bf906146d9565b6033805460ff19169055565b600054610100900460ff16613bd15760405162461bcd60e51b81526004016109bf906146d9565b600160c955565b6040516001600160a01b03808516602483015283166044820152606481018290526138499085906323b872dd60e01b90608401613a4f565b6000613c65826040518060400160405280602081526020017f5361666545524332303a206c6f772d6c6576656c2063616c6c206661696c6564815250856001600160a01b0316613e169092919063ffffffff16565b805190915015612da85780806020019051810190613c839190614223565b612da85760405162461bcd60e51b815260206004820152602a60248201527f5361666545524332303a204552433230206f7065726174696f6e20646964206e6044820152691bdd081cdd58d8d9595960b21b60648201526084016109bf565b613ceb81613a86565b6040516001600160a01b038216907fbc7cd75a20ee27fd9adebab32041f755214dbc6bffa90cc0225b39da2e5c2d3b90600090a250565b60606001600160a01b0383163b613d8a5760405162461bcd60e51b815260206004820152602660248201527f416464726573733a2064656c65676174652063616c6c20746f206e6f6e2d636f6044820152651b9d1c9858dd60d21b60648201526084016109bf565b600080846001600160a01b031684604051613da5919061437c565b600060405180830381855af49150503d8060008114613de0576040519150601f19603f3d011682016040523d82523d6000602084013e613de5565b606091505b5091509150613e0d8282604051806060016040528060278152602001614bdf60279139613e2d565b95945050505050565b6060613e258484600085613e66565b949350505050565b60608315613e3c575081612d44565b825115613e4c5782518084602001fd5b8160405162461bcd60e51b81526004016109bf9190614463565b606082471015613ec75760405162461bcd60e51b815260206004820152602660248201527f416464726573733a20696e73756666696369656e742062616c616e636520666f6044820152651c8818d85b1b60d21b60648201526084016109bf565b6001600160a01b0385163b613f1e5760405162461bcd60e51b815260206004820152601d60248201527f416464726573733a2063616c6c20746f206e6f6e2d636f6e747261637400000060448201526064016109bf565b600080866001600160a01b03168587604051613f3a919061437c565b60006040518083038185875af1925050503d8060008114613f77576040519150601f19603f3d011682016040523d82523d6000602084013e613f7c565b606091505b5091509150613f8c828286613e2d565b979650505050505050565b60008083601f840112613fa957600080fd5b50813567ffffffffffffffff811115613fc157600080fd5b6020830191508360208260051b85010111156113da57600080fd5b600060208284031215613fee57600080fd5b8135612d4481614b9a565b6000806000806080858703121561400f57600080fd5b843561401a81614b9a565b9350602085013561402a81614baf565b925060408501359150606085013561404181614b9a565b939692955090935050565b6000806040838503121561405f57600080fd5b823561406a81614b9a565b9150602083013567ffffffffffffffff8082111561408757600080fd5b818501915085601f83011261409b57600080fd5b8135818111156140ad576140ad614ad1565b604051601f8201601f19908116603f011681019083821181831017156140d5576140d5614ad1565b816040528281528860208487010111156140ee57600080fd5b8260208601602083013760006020848301015280955050505050509250929050565b6000806040838503121561412357600080fd5b823561412e81614b9a565b946020939093013593505050565b6000806040838503121561414f57600080fd5b823561415a81614b9a565b9150602083013561416a81614baf565b809150509250929050565b6000806020838503121561418857600080fd5b823567ffffffffffffffff81111561419f57600080fd5b6141ab85828601613f97565b90969095509350505050565b600080600080604085870312156141cd57600080fd5b843567ffffffffffffffff808211156141e557600080fd5b6141f188838901613f97565b9096509450602087013591508082111561420a57600080fd5b5061421787828801613f97565b95989497509550505050565b60006020828403121561423557600080fd5b81518015158114612d4457600080fd5b60006020828403121561425757600080fd5b5051919050565b6000806000806040858703121561427457600080fd5b843567ffffffffffffffff8082111561428c57600080fd5b818701915087601f8301126142a057600080fd5b8135818111156142af57600080fd5b8860208285010111156142c157600080fd5b60209283019650945090860135908082111561420a57600080fd5b6000602082840312156142ee57600080fd5b5035919050565b60008060006060848603121561430a57600080fd5b8351925060208401519150604084015190509250925092565b60006020828403121561433557600080fd5b8135612d4481614baf565b60008184825b8581101561437157813561435981614baf565b60ff1683526020928301929190910190600101614346565b509095945050505050565b6000825161438e818460208701614a3e565b9190910192915050565b6020808252810182905260006001600160fb1b038311156143b857600080fd5b8260051b80856040850137600092016040019182525092915050565b60208082528181018390526000908460408401835b868110156144115782356143fc81614baf565b60ff16825291830191908301906001016143e9565b509695505050505050565b6020808252825182820181905260009190848201906040850190845b8181101561445757835160ff1683529284019291840191600101614438565b50909695505050505050565b6020815260008251806020840152614482816040850160208701614a3e565b601f01601f19169190910160400192915050565b6020808252601a908201527f70726f787920636f6e7472616374206e6f7420616c6c6f776564000000000000604082015260600190565b6020808252603b908201527f526f756c657474653a2062657454797065732063616e2072616e67652062657460408201527f7765656e203020616e64203628696e636c7564656429206f6e6c790000000000606082015260800190565b6020808252602c908201527f46756e6374696f6e206d7573742062652063616c6c6564207468726f7567682060408201526b19195b1959d85d1958d85b1b60a21b606082015260800190565b6020808252818101527f526f756c657474653a204172726179206c656e67746873206d69736d61746368604082015260600190565b6020808252602c908201527f46756e6374696f6e206d7573742062652063616c6c6564207468726f7567682060408201526b6163746976652070726f787960a01b606082015260800190565b60208082526010908201526f14185d5cd8589b194e881c185d5cd95960821b604082015260600190565b60208082526016908201527543616e6e6f74206265207a65726f206164647265737360501b604082015260600190565b6020808252818101527f4f776e61626c653a2063616c6c6572206973206e6f7420746865206f776e6572604082015260600190565b60208082526014908201527318dbdb9d1c9858dd081b9bdd08185b1b1bddd95960621b604082015260600190565b6020808252600b908201526a61646d696e3a207775743f60a81b604082015260600190565b6020808252602b908201527f496e697469616c697a61626c653a20636f6e7472616374206973206e6f74206960408201526a6e697469616c697a696e6760a81b606082015260800190565b6020808252601f908201527f5265656e7472616e637947756172643a207265656e7472616e742063616c6c00604082015260600190565b6020808252818101527f526f756c657474653a20496e76616c696420646966666572656e746961746f72604082015260600190565b6000808335601e198436030181126147a757600080fd5b83018035915067ffffffffffffffff8211156147c257600080fd5b6020019150600581901b36038213156113da57600080fd5b60008235607e1983360301811261438e57600080fd5b6000821982111561480357614803614aa5565b500190565b600060ff821660ff84168060ff0382111561482557614825614aa5565b019392505050565b600181815b8085111561486857816000190482111561484e5761484e614aa5565b8085161561485b57918102915b93841c9390800290614832565b509250929050565b6000612d4460ff84168360008261488957506001610d31565b8161489657506000610d31565b81600181146148ac57600281146148b6576148d2565b6001915050610d31565b60ff8411156148c7576148c7614aa5565b50506001821b610d31565b5060208310610133831016604e8410600b84101617156148f5575081810a610d31565b6148ff838361482d565b806000190482111561491357614913614aa5565b029392505050565b600081600019048311821515161561493557614935614aa5565b500290565b60008282101561494c5761494c614aa5565b500390565b6801000000000000000083111561496a5761496a614ad1565b8054838255808410156149ce57600082815260208120601f860160051c8101601f840160051c82019150601f871680156149b5576000198083018054828460200360031b1c16815550505b505b818110156149ca578281556001016149b7565b5050505b506000818152602081208391805b86811015614a3557614a0d6149f085614ae7565b845460ff600386901b81811b801990931693909116901b16178455565b60208401935060018083019250601f831115614a2c5792830192600092505b506001016149dc565b50505050505050565b60005b83811015614a59578181015183820152602001614a41565b838111156138495750506000910152565b6000600019821415614a7e57614a7e614aa5565b5060010190565b600060ff821660ff811415614a9c57614a9c614aa5565b60010192915050565b634e487b7160e01b600052601160045260246000fd5b634e487b7160e01b600052603260045260246000fd5b634e487b7160e01b600052604160045260246000fd5b60008135610d3181614baf565b8135614aff81614baf565b60ff8116905081548160ff1982161783556020840135614b1e81614baf565b61ff008160081b168361ffff198416171784555050506040820135601e19833603018112614b4b57600080fd5b8201803567ffffffffffffffff811115614b6457600080fd5b6020820191508060051b3603821315614b7c57600080fd5b614b8a818360018601614951565b5050606082013560028201555050565b6001600160a01b0381168114610e1457600080fd5b60ff81168114610e1457600080fdfe360894a13ba1a3210667c828492db98dca3e2076cc3735a920a3ca505d382bbc416464726573733a206c6f772d6c6576656c2064656c65676174652063616c6c206661696c6564a26469706673582212207760f39a9075790959e4ee76aa42a814df0d4e8c4d64a50ef1a6839508d0a5d864736f6c63430008060033",
  "immutableReferences": {
    "617": [
      {
        "length": 32,
        "start": 3394
      },
      {
        "length": 32,
        "start": 3458
      },
      {
        "length": 32,
        "start": 4454
      },
      {
        "length": 32,
        "start": 4518
      },
      {
        "length": 32,
        "start": 4665
      }
    ]
  },
  "source": "// SPDX-License-Identifier: MIT\r\n\r\npragma solidity ^0.8.5;\r\n\r\nimport \"@openzeppelin/contracts-upgradeable/proxy/utils/UUPSUpgradeable.sol\";\r\nimport \"@openzeppelin/contracts-upgradeable/security/ReentrancyGuardUpgradeable.sol\";\r\nimport \"@openzeppelin/contracts-upgradeable/access/OwnableUpgradeable.sol\";\r\nimport \"@openzeppelin/contracts-upgradeable/security/PausableUpgradeable.sol\";\r\nimport \"@openzeppelin/contracts-upgradeable/utils/math/SafeMathUpgradeable.sol\";\r\nimport \"@openzeppelin/contracts-upgradeable/token/ERC20/utils/SafeERC20Upgradeable.sol\";\r\nimport \"./interfaces/IRandomGenerator.sol\";\r\n\r\ncontract Roulette is \r\n    Initializable,\r\n    PausableUpgradeable,\r\n    UUPSUpgradeable,\r\n    ReentrancyGuardUpgradeable,\r\n    OwnableUpgradeable\r\n{\r\n    using SafeMathUpgradeable for uint256;\r\n    using SafeERC20Upgradeable for IERC20Upgradeable;\r\n\r\n    struct Round {\r\n        uint256 roundId;\r\n        uint256 epoch;\r\n        Bet[] bets;\r\n        uint256 totalAmountBet;\r\n        uint256 totalRewardAmount;\r\n        uint256 treasuryCollections;\r\n        bool oracleCalled;\r\n        uint8 winningNumber;\r\n        bool claimed;\r\n        // the amount put on a number with a slab\r\n        // totalAmountInSlabs[number][slab] = total amount bet on that number in a slab\r\n        mapping(uint8 => mapping(uint8 => uint256)) totalAmountInSlabs;\r\n    }\r\n\r\n    /** \r\n    * @dev BetTypes\r\n    * 0 for RedBlack, OddEven, HighLow => 18 numbers and reward = 1x the amount bet\r\n    * 1 for Columns, Dozens => 12 numbers and reward = 2x the amount bet\r\n    * 2 for Line => 6 numbers and reward = 5x the amount bet\r\n    * 3 for Corner => 4 numbers and reward = 8x the amount bet\r\n    * 4 for Street, ThreeNumBetsWithZero => 3 numbers and reward = 11x the amount bet\r\n    * 5 for Split => 2 numbers and reward = 17x the amount bet\r\n    * 6 for Number => 1 number and reward = 35x the amount bet\r\n    */\r\n    \r\n    struct Bet{\r\n        /**\r\n        * @dev Differentiator \r\n        * for betType 0 => diff 0 for RedBlack, 1 for OddEven and 2 for HighLow\r\n        * for betType 1 => diff 0 for columns and 1 for Dozens\r\n        * for betType 2 => diff 0 for Line\r\n        * for betType 3 => diff 0 for Corner\r\n        * for betType 4 => diff 0 for Street and 1 for ThreeNumBetsWithZero\r\n        * for betType 5 => diff 0 for Split\r\n        * for betType 6 => diff 0 for Number\r\n        */\r\n        \r\n        uint8 betType;\r\n        uint8 differentiator;\r\n        uint8[] numbers;\r\n        uint256 amount;\r\n    }\r\n\r\n    struct RoundInfo{\r\n        address user;\r\n        uint256 epoch;\r\n    }\r\n\r\n    //Payout, MinBetAmount, MaxBetAmount by BetType\r\n    mapping(uint8 => uint8) public payout;\r\n    mapping(uint8 => uint256) public minBetAmount;\r\n    mapping(uint8 => uint256) public maxBetAmount;\r\n    //For each kind of bet, the required number of numbers to be bet on\r\n    mapping(uint8 => uint8) public numbersByKindOfBet;\r\n    //RoundInfo by roundId\r\n    mapping(uint256 => RoundInfo) public roundInfo;\r\n    //Round by userAddress amd Epoch \r\n    mapping(address => mapping(uint256 => Round)) public rounds;\r\n    mapping(address => uint256) public currentUserEpoch;\r\n    mapping(address => uint256) public claimCheckpoint;\r\n\r\n    address public admin;\r\n    address public operator;\r\n    uint256 public counter;\r\n    uint256 public treasuryAmount;\r\n    uint256 private randomRoundId;\r\n    uint256 public totalVolume;\r\n\r\n    uint256 public randomNumUpdateAllowance; // seconds\r\n    IRandomGenerator private randomGenerator;\r\n\r\n    //Token which is used for betting\r\n    address public tokenStaked;\r\n    uint8 public tokenDecimals;\r\n\r\n    event ExecuteRound(\r\n        uint256 indexed roundId,\r\n        address indexed user,\r\n        uint256 indexed epoch,\r\n        uint8 winningNumber,\r\n        uint256 prevRoundIdForUser,\r\n        uint256 totalAmountBet,\r\n        uint256 totalRewards,\r\n        uint256 treasuryCollections\r\n        );\r\n    event Claim(\r\n        address indexed sender,\r\n        uint256 indexed currentEpoch,\r\n        uint256 amount\r\n    );\r\n    event ClaimAll(\r\n        address indexed user, \r\n        uint256 claimCheckpoint, \r\n        uint256 reward\r\n        );\r\n    event ClaimTreasury(uint256 amount);\r\n    event PayoutUpdated(\r\n        uint256 indexed epoch,\r\n        uint8[] indexed betType,\r\n        uint8[] payout\r\n    );\r\n    event MinBetAmountUpdated(\r\n        uint256 indexed epoch,\r\n        uint8[] indexed betType, \r\n        uint256[] minBetAmount\r\n        );\r\n    event MaxBetAmountUpdated(\r\n        uint256 indexed epoch,\r\n        uint8[] indexed betType, \r\n        uint256[] maxBetAmount\r\n        );\r\n    event Pause(uint256 epoch);\r\n    event Unpause(uint256 epoch);\r\n    event OperatorChanged(address previousOperator, address newOperator);\r\n    event OracleUpdateAllowanceUpdated(\r\n        uint256 currentEpoch, \r\n        uint256 _randomNumUpdateAllowance\r\n        );\r\n    event TokenWithdrawal(address to, address token, uint256 amount);\r\n    event NativeWithdrawal(address to, uint256 amount);\r\n    event TokenStakedUpdated(uint256 epoch, address token, uint8 decimals);\r\n\r\n    function initialize(\r\n        bytes calldata data,\r\n        address[] calldata _ownerAdminOperator\r\n    ) public initializer {\r\n\r\n        __Ownable_init();\r\n        __Pausable_init();\r\n        __ReentrancyGuard_init();\r\n\r\n        transferOwnership(_ownerAdminOperator[0]);\r\n        admin = _ownerAdminOperator[1];\r\n        operator = _ownerAdminOperator[2];\r\n\r\n        numbersByKindOfBet[0] = 18;\r\n        numbersByKindOfBet[1] = 12;\r\n        numbersByKindOfBet[2] = 6;\r\n        numbersByKindOfBet[3] = 4;\r\n        numbersByKindOfBet[4] = 3;\r\n        numbersByKindOfBet[5] = 2;\r\n        numbersByKindOfBet[6] = 1;\r\n\r\n        //Setting the bet payouts for different kinds of bets\r\n        payout[0] = 1;\r\n        payout[1] = 2;\r\n        payout[2] = 5;\r\n        payout[3] = 8;\r\n        payout[4] = 11;\r\n        payout[5] = 17;\r\n        payout[6] = 35;        \r\n\r\n        address _tokenStaked;\r\n        uint8 _decimals;\r\n        uint256 _randomNumUpdateAllowance;\r\n        address _randomGenerator;\r\n        \r\n        (_tokenStaked, _decimals, _randomNumUpdateAllowance, _randomGenerator) \r\n            = abi.decode(\r\n                    data, \r\n                    (address, uint8, uint256, address)\r\n                );\r\n\r\n        tokenStaked = _tokenStaked;\r\n        tokenDecimals = _decimals;\r\n        randomGenerator = IRandomGenerator(_randomGenerator);\r\n        randomNumUpdateAllowance = _randomNumUpdateAllowance;\r\n\r\n        //Setting min bet amounts and max bet amounts for each bet type\r\n        //Min Bet is 1 token\r\n        minBetAmount[0] = 10 ** _decimals;\r\n        minBetAmount[1] = 10 ** _decimals;\r\n        minBetAmount[2] = 10 ** _decimals;\r\n        minBetAmount[3] = 10 ** _decimals;\r\n        minBetAmount[4] = 10 ** _decimals;\r\n        minBetAmount[5] = 10 ** _decimals;\r\n        minBetAmount[6] = 10 ** _decimals;\r\n\r\n        //Max bets for outside bets are 100 USDC\r\n        //Max bets for inside bets are according to the payout!\r\n        maxBetAmount[0] = 100 * 10 ** _decimals;\r\n        maxBetAmount[1] = 80 * 10 ** _decimals;\r\n        maxBetAmount[2] = 70 * 10 ** _decimals;\r\n        maxBetAmount[3] = 60 * 10 ** _decimals;\r\n        maxBetAmount[4] = 50 * 10 ** _decimals;\r\n        maxBetAmount[5] = 40 * 10 ** _decimals;\r\n        maxBetAmount[6] = 20 * 10 ** _decimals;\r\n    }\r\n\r\n    function _authorizeUpgrade(address newImplementation) internal override onlyOwner(){}\r\n\r\n    modifier onlyAdmin{\r\n        require(msg.sender == admin, \"admin: wut?\");\r\n        _;\r\n    }\r\n\r\n    modifier onlyOperator{\r\n        require(msg.sender == operator, \"operator: wut?\");\r\n        _;\r\n    }\r\n\r\n    modifier notContract{\r\n        require(!_isContract(msg.sender), \"contract not allowed\");\r\n        require(msg.sender == tx.origin, \"proxy contract not allowed\");\r\n        _;\r\n    }\r\n\r\n    /**\r\n     * @dev set admin address\r\n     * callable by owner\r\n     */\r\n    function setAdmin(address _admin) external onlyOwner {\r\n        require(_admin != address(0), \"Cannot be zero address\");\r\n        address previousAdmin = admin;\r\n        admin = _admin;\r\n        emit AdminChanged(previousAdmin, admin);\r\n    }\r\n\r\n    /**\r\n     * @dev set operator address\r\n     * callable by admin\r\n     */\r\n    function setOperator(address _operator) external onlyAdmin {\r\n        require(_operator != address(0), \"Cannot be zero address\");\r\n        address previousOperator = operator;\r\n        operator = _operator;\r\n        emit OperatorChanged(previousOperator, operator);\r\n    }\r\n\r\n    \r\n    /**\r\n     * @dev set token staked and its decimals\r\n     * Callable by admin\r\n     */\r\n    function changeTokenStaked(address token, uint8 _decimals) \r\n        external \r\n        onlyAdmin \r\n    {\r\n        tokenStaked = token;\r\n        tokenDecimals = _decimals;\r\n\r\n        emit TokenStakedUpdated(counter, token, _decimals);\r\n    }\r\n    \r\n    \r\n    /**\r\n     * @dev get all the payouts\r\n     */\r\n    function getPayouts() external view returns(uint8[] memory){\r\n        uint8[] memory payouts = new uint8[](7);\r\n        for(uint8 i = 0; i < 7; i++){\r\n            payouts[i] = payout[i];\r\n        }\r\n        return payouts;\r\n    }\r\n\r\n    /**\r\n     * @dev get random number address\r\n     * callable by owner, admin and operator\r\n     */\r\n    function getRandomNumberOracleAdd() external view returns(address){\r\n        require(\r\n            msg.sender == owner() || msg.sender == admin || msg.sender == operator,\r\n            \"Roulette: unauthorized access\" \r\n            );\r\n        return address(randomGenerator);\r\n    }\r\n\r\n\r\n    /**\r\n     * @dev set random number address\r\n     * callable by admin\r\n     */\r\n    function setRandomNumberOracleAdd(address _randomGenerator) external onlyAdmin {\r\n        require(_randomGenerator != address(0), \"Cannot be zero address\");\r\n        randomGenerator = IRandomGenerator(_randomGenerator);\r\n    }\r\n\r\n\r\n    /**\r\n     * @dev set random number update allowance\r\n     * callable by admin\r\n     */\r\n    function setRandomNumUpdateAllowance(uint256 _randomNumUpdateAllowance)\r\n        external\r\n        onlyAdmin\r\n    {\r\n        randomNumUpdateAllowance = _randomNumUpdateAllowance;\r\n        emit OracleUpdateAllowanceUpdated(counter, _randomNumUpdateAllowance);\r\n    }\r\n\r\n    /**\r\n     * @dev set payout rate\r\n     * callable by admin\r\n     */\r\n    function setPayout(uint8[] calldata betType, uint8[] calldata _payout) external onlyAdmin {\r\n        require(\r\n            betType.length == _payout.length && betType.length <= 7,\r\n            \"Roulette: Array lengths mismatch\"\r\n            );\r\n\r\n        for(uint8 i = 0; i < betType.length; i++){\r\n            require(\r\n                betType[i] < 7,\r\n                \"Roulette: betTypes can range between 0 and 6(included) only\"\r\n                );\r\n            payout[betType[i]] = _payout[i];\r\n        }\r\n\r\n        emit PayoutUpdated(counter, betType, _payout);\r\n    }\r\n\r\n    /**\r\n     * @dev set minBetAmount\r\n     * callable by admin\r\n     */\r\n    function setMinBetAmount(\r\n        uint8[] calldata betType, \r\n        uint256[] calldata _minBetAmount\r\n        ) external \r\n        onlyAdmin \r\n    {\r\n        require(\r\n            betType.length == _minBetAmount.length && betType.length <= 7,\r\n            \"Roulette: Array lengths mismatch\"\r\n            );\r\n        \r\n        for(uint8 i = 0; i < betType.length; i++){\r\n            \r\n            require(\r\n                betType[i] < 7,\r\n                \"Roulette: betTypes can range between 0 and 6(included) only\"\r\n                );\r\n\r\n            require(\r\n                _minBetAmount[i] <= maxBetAmount[betType[i]],\r\n                \"Roulette: minBetAmount should be <= maxBetAmount\"\r\n                );\r\n\r\n            minBetAmount[betType[i]] = _minBetAmount[i];\r\n        }\r\n\r\n        emit MinBetAmountUpdated(counter, betType, _minBetAmount);\r\n    }\r\n\r\n    /**\r\n     * @dev set maxBetAmount\r\n     * callable by admin\r\n     */\r\n    function setMaxBetAmount(\r\n        uint8[] calldata betType, \r\n        uint256[] calldata _maxBetAmount\r\n        ) external \r\n        onlyAdmin \r\n    {\r\n        require(\r\n            betType.length == _maxBetAmount.length && betType.length <= 7,\r\n            \"Roulette: Array lengths mismatch\"\r\n            );\r\n        \r\n        for(uint8 i = 0; i < betType.length; i++){\r\n\r\n            require(\r\n                betType[i] < 7,\r\n                \"Roulette: betTypes can range between 0 and 6(included) only\"\r\n                );\r\n\r\n            require(\r\n                minBetAmount[betType[i]] <= _maxBetAmount[i],\r\n                \"Roulette: maxBetAmount should be >= minBetAmount\"\r\n                );\r\n            \r\n            maxBetAmount[betType[i]] = _maxBetAmount[i];\r\n        }\r\n\r\n        emit MaxBetAmountUpdated(counter, betType, _maxBetAmount);\r\n    }\r\n\r\n    /**\r\n     * @dev gets random round id\r\n     * callable by admin\r\n     */\r\n    function getRandomRoundId() public view returns(uint256){\r\n        require(\r\n            msg.sender == owner() || msg.sender == admin || msg.sender == operator,\r\n            \"Roulette: Unauthorized function call\"\r\n        );\r\n        return randomRoundId;\r\n    }\r\n\r\n\r\n    /**\r\n     * @dev Start the next round n, lock price for round n-1, end round n-2\r\n     */\r\n    function executeRound(\r\n        Bet[] calldata bets\r\n        ) \r\n        external \r\n        virtual \r\n        nonReentrant\r\n        whenNotPaused \r\n    {\r\n        counter = counter.add(1);\r\n        currentUserEpoch[msg.sender] = currentUserEpoch[msg.sender].add(1);\r\n\r\n        _startRound(msg.sender, currentUserEpoch[msg.sender]);\r\n\r\n        uint8 randomNum = _getNumberFromOracle();\r\n        _bet(msg.sender, bets);\r\n        _endRound(msg.sender, currentUserEpoch[msg.sender], randomNum);\r\n        _calculateRewards(msg.sender, currentUserEpoch[msg.sender]);\r\n\r\n        roundInfo[counter] = RoundInfo(msg.sender, currentUserEpoch[msg.sender]);\r\n\r\n        uint256 prevRoundIdForUser = 0;\r\n        if(currentUserEpoch[msg.sender] > 1){\r\n            prevRoundIdForUser = rounds[msg.sender][currentUserEpoch[msg.sender].sub(1)].roundId;\r\n        }\r\n\r\n        emit ExecuteRound(\r\n            counter,\r\n            msg.sender, \r\n            currentUserEpoch[msg.sender], \r\n            randomNum, \r\n            prevRoundIdForUser,\r\n            rounds[msg.sender][currentUserEpoch[msg.sender]].totalAmountBet,\r\n            rounds[msg.sender][currentUserEpoch[msg.sender]].totalRewardAmount,\r\n            rounds[msg.sender][currentUserEpoch[msg.sender]].treasuryCollections\r\n            );\r\n    }\r\n\r\n    function _startRound(address user, uint256 epoch) internal virtual{\r\n        Round storage round = rounds[user][epoch];\r\n        round.roundId = counter;\r\n        round.epoch = epoch;\r\n        round.totalAmountBet = 0;\r\n    }\r\n\r\n\r\n    /**\r\n     * @dev End round\r\n     */\r\n    function _endRound(address user, uint256 epoch, uint8 winningNum) internal virtual{\r\n        Round storage round = rounds[user][epoch];\r\n        round.winningNumber = winningNum;\r\n        round.oracleCalled = true;\r\n    }\r\n\r\n    /**\r\n     * @dev Calculate rewards for round\r\n     */\r\n    function _calculateRewards(address user, uint256 epoch) internal virtual{\r\n        require(\r\n            rounds[user][epoch].totalRewardAmount == 0,\r\n            \"Rewards calculated\"\r\n        );\r\n        Round storage round = rounds[user][epoch];\r\n        uint8 winner = round.winningNumber;\r\n        uint256 totalRewards = 0;\r\n        uint256 treasuryAmt = 0;\r\n\r\n        for(uint8 i = 0; i < 7; i++){\r\n            totalRewards = totalRewards.add(round.totalAmountInSlabs[winner][payout[i]].mul(payout[i] + 1));\r\n        }\r\n\r\n        round.totalRewardAmount = totalRewards;\r\n        if(totalRewards < round.totalAmountBet){\r\n            treasuryAmt = (round.totalAmountBet).sub(totalRewards);\r\n        }\r\n        // Add to treasury\r\n        round.treasuryCollections = treasuryAmt;\r\n        treasuryAmount = treasuryAmount.add(treasuryAmt);\r\n\r\n    }\r\n\r\n\r\n    /**\r\n     * @dev User bets\r\n     */\r\n    function _bet(\r\n        address user,\r\n        Bet[] calldata bets\r\n        ) \r\n        internal \r\n        virtual\r\n        whenNotPaused \r\n        notContract \r\n    {\r\n        Round storage round = rounds[user][currentUserEpoch[msg.sender]];\r\n\r\n        for(uint8 i = 0; i< bets.length; i++){\r\n            \r\n            round.bets.push(bets[i]);\r\n            uint8 betType = bets[i].betType;\r\n            uint8 differentiator = bets[i].differentiator;\r\n\r\n            if(betType == 0){\r\n                require(\r\n                    differentiator == 0 || differentiator == 1 || differentiator == 2,\r\n                    'Roulette: Invalid differentiator'\r\n                    );\r\n            }\r\n\r\n            else if(betType == 1 || betType == 4){\r\n                require(\r\n                    differentiator == 0 || differentiator == 1,\r\n                    'Roulette: Invalid differentiator'\r\n                    );\r\n            }\r\n\r\n            else{\r\n                require(\r\n                    differentiator == 0,\r\n                    'Roulette: Invalid differentiator'\r\n                    );\r\n            }\r\n\r\n            require(betType < 7, \"Roulette: betTypes can range between 0 and 6(included) only\");\r\n\r\n            require(\r\n                bets[i].amount >= minBetAmount[betType] && bets[i].amount <= maxBetAmount[betType],\r\n                \"Roulette: Amount < MinBetAmount or Amount > MaxBetAmount for atleast one of the bets\"\r\n            );\r\n            \r\n            require(\r\n                bets[i].numbers.length == numbersByKindOfBet[betType],\r\n                \"Roulette: invalid entry of numbers in atleast one bet\"\r\n                );\r\n\r\n            uint8 slab = payout[betType];\r\n            \r\n            for(uint8 j = 0; j < bets[i].numbers.length; j++){\r\n                round.totalAmountInSlabs[bets[i].numbers[j]][slab] = \r\n                    (round.totalAmountInSlabs[bets[i].numbers[j]][slab]).add(bets[i].amount);\r\n            }\r\n            round.totalAmountBet = (round.totalAmountBet).add(bets[i].amount);\r\n            totalVolume = totalVolume.add(bets[i].amount);\r\n        }\r\n\r\n        IERC20Upgradeable(tokenStaked).safeTransferFrom(user, address(this), round.totalAmountBet);\r\n        \r\n    }\r\n\r\n   \r\n    function claim(uint256 epoch) external virtual notContract nonReentrant{\r\n        require(!rounds[msg.sender][epoch].claimed, \"Rewards claimed\");\r\n\r\n        (bool canClaim, uint256 reward) = claimable(msg.sender, epoch);\r\n        \r\n        require(canClaim || refundable(msg.sender, epoch), \"Not claimable or refundable\");\r\n        \r\n        if(refundable(msg.sender, epoch)){\r\n            reward = rounds[msg.sender][epoch].totalAmountBet;\r\n        }\r\n\r\n        rounds[msg.sender][epoch].claimed = true;\r\n        _safeTransferToken(address(msg.sender), reward);\r\n\r\n        emit Claim(msg.sender, epoch, reward);\r\n    }\r\n\r\n    function claimAll() external virtual notContract nonReentrant{\r\n        (bool isClaimable, uint256 reward) = totalClaimable(msg.sender);\r\n        require(isClaimable, \"Not claimable\");\r\n        _safeTransferToken(address(msg.sender), reward);\r\n        claimCheckpoint[msg.sender] = currentUserEpoch[msg.sender];\r\n        emit ClaimAll(msg.sender, currentUserEpoch[msg.sender], reward);\r\n    }\r\n\r\n\r\n    \r\n    /**\r\n     * @dev Claim all rewards in treasury\r\n     * callable by admin\r\n     */\r\n    function claimTreasury() external virtual onlyAdmin{\r\n        require(treasuryAmount > 0, \"Zero treasury amount\");\r\n        uint256 currentTreasuryAmount = treasuryAmount;\r\n        treasuryAmount = 0;\r\n        _safeTransferToken(admin, currentTreasuryAmount);\r\n        emit ClaimTreasury(currentTreasuryAmount);\r\n    }\r\n\r\n    /**\r\n     * @dev called by the admin to pause, triggers stopped state\r\n     */\r\n    function pause() public onlyAdmin whenNotPaused returns(bool){\r\n        _pause();\r\n\r\n        emit Pause(counter);\r\n        return true;\r\n    }\r\n\r\n    /**\r\n     * @dev called by the admin to unpause, returns to normal state\r\n     * Reset genesis state. Once paused, the rounds would need to be kickstarted by genesis\r\n     */\r\n    function unpause() public onlyAdmin whenPaused returns(bool){\r\n        _unpause();\r\n\r\n        emit Unpause(counter);\r\n        return true;\r\n    }\r\n\r\n    /**\r\n     * @dev Get the claimable stats of specific epoch and user account\r\n     */\r\n    function claimable(address user, uint256 epoch) \r\n        public \r\n        virtual\r\n        view \r\n        returns (bool, uint256) \r\n    {\r\n        Round storage round = rounds[user][epoch];\r\n        if(round.claimed){\r\n            return (false, 0);\r\n        }\r\n        \r\n        uint8 winningNum = round.winningNumber;\r\n        uint256 winAmount = 0;\r\n        for(uint8 i = 0; i < 7; i++){\r\n            winAmount = winAmount.add((round.totalAmountInSlabs[winningNum][payout[i]]).mul(payout[i] + 1));\r\n        }\r\n\r\n        return\r\n            ((\r\n                round.oracleCalled && \r\n                winAmount > 0\r\n            ),\r\n             winAmount);\r\n    }\r\n\r\n    function totalClaimable(\r\n        address user\r\n        ) \r\n        public \r\n        virtual\r\n        view \r\n        returns (bool, uint256) \r\n    {\r\n        uint256 totalAmount;\r\n\r\n        for(uint256 i = claimCheckpoint[user].add(1); i <= currentUserEpoch[user]; i++){\r\n            if(!rounds[user][i].claimed){\r\n                (bool canClaim, uint256 reward) = claimable(user, i);\r\n\r\n                if(canClaim){\r\n                    totalAmount = totalAmount.add(reward);\r\n                }\r\n\r\n                else if(refundable(user, i)){\r\n                    totalAmount = totalAmount.add(rounds[user][i].totalAmountBet);\r\n                }\r\n            }\r\n            \r\n        }\r\n\r\n        if(totalAmount == 0){\r\n            return (false, 0);\r\n        }\r\n        \r\n        return (true, totalAmount);\r\n    }\r\n    \r\n    function refundable(address user, uint256 epoch) \r\n    public \r\n    virtual\r\n    view \r\n    returns(bool){\r\n        Round storage round = rounds[user][epoch];\r\n        return \r\n            (round.totalAmountBet != 0) &&\r\n            (!round.oracleCalled);\r\n    }\r\n    /**\r\n     * @dev Get latest recorded price from oracle\r\n     * If it falls below allowed buffer or has not updated, it would be invalid\r\n     */\r\n    function _getNumberFromOracle() internal returns (uint8) {\r\n        uint256 allowedTime = block.timestamp.add(\r\n            randomNumUpdateAllowance\r\n        );\r\n        (uint256 roundId, uint256 winner, uint256 timestamp) = \r\n            randomGenerator.latestRoundData(37);\r\n        require(\r\n            timestamp <= allowedTime,\r\n            \"Oracle update exceeded max allowance\"\r\n        );\r\n        require(\r\n            roundId >= randomRoundId,\r\n            \"Oracle update roundId < old id\"\r\n        );\r\n        randomRoundId = roundId;\r\n        return uint8(winner);\r\n    }\r\n\r\n    function _safeTransferToken(address to, uint256 value) internal {\r\n        IERC20Upgradeable(tokenStaked).safeTransfer(to, value);\r\n    }\r\n\r\n    function _isContract(address addr) internal view returns (bool) {\r\n        uint256 size;\r\n        assembly {\r\n            size := extcodesize(addr)\r\n        }\r\n        return size > 0;\r\n    }\r\n\r\n\r\n    //If someone accidently sends tokens or native currency to this contract\r\n    function withdrawAllTokens(address token) external onlyAdmin{\r\n        uint256 bal = IERC20Upgradeable(token).balanceOf(address(this));\r\n        withdrawToken(token, bal);\r\n    }\r\n\r\n    \r\n    function withdrawToken(address token, uint256 amount) public virtual onlyAdmin{\r\n        // require(token != tokenStaked, \"Cannot withdraw the token staked\");\r\n        uint256 bal = IERC20Upgradeable(token).balanceOf(address(this));\r\n        require(bal >= amount, \"balanace of token in contract too low\");\r\n        IERC20Upgradeable(token).safeTransfer(admin, amount);\r\n        emit TokenWithdrawal(admin, token, amount);\r\n    }\r\n\r\n    function withdrawAllNative() external onlyAdmin{\r\n        uint256 bal = address(this).balance;\r\n        withdrawNative(bal);\r\n    } \r\n\r\n    function withdrawNative(uint256 amount) public virtual onlyAdmin{\r\n        uint256 bal = address(this).balance;\r\n        require(bal >= amount, \"balanace of native token in contract too low\");\r\n        (bool sent, ) = admin.call{value: amount}(\"\");\r\n        require(sent, \"Failure in native token transfer\");\r\n        emit NativeWithdrawal(admin, amount);\r\n    }\r\n}\r\n\r\n",
  "sourcePath": "C:\\Users\\shiva\\OneDrive\\Desktop\\RouletteIndividual\\contracts\\Roulette.sol",
  "compiler": {
    "name": "solc",
    "version": "0.8.6+commit.11564f7e.Emscripten.clang"
  },
  "schemaVersion": "3.4.4",
  "updatedAt": "2022-02-28T09:57:27.700Z",
  "networkType": "ethereum",
  "devdoc": {
    "kind": "dev",
    "methods": {
      "changeTokenStaked(address,uint8)": {
        "details": "set token staked and its decimals Callable by admin"
      },
      "claimTreasury()": {
        "details": "Claim all rewards in treasury callable by admin"
      },
      "claimable(address,uint256)": {
        "details": "Get the claimable stats of specific epoch and user account"
      },
      "executeRound((uint8,uint8,uint8[],uint256)[])": {
        "details": "Start the next round n, lock price for round n-1, end round n-2"
      },
      "getPayouts()": {
        "details": "get all the payouts"
      },
      "getRandomNumberOracleAdd()": {
        "details": "get random number address callable by owner, admin and operator"
      },
      "getRandomRoundId()": {
        "details": "gets random round id callable by admin"
      },
      "owner()": {
        "details": "Returns the address of the current owner."
      },
      "pause()": {
        "details": "called by the admin to pause, triggers stopped state"
      },
      "paused()": {
        "details": "Returns true if the contract is paused, and false otherwise."
      },
      "proxiableUUID()": {
        "details": "Implementation of the ERC1822 {proxiableUUID} function. This returns the storage slot used by the implementation. It is used to validate that the this implementation remains valid after an upgrade. IMPORTANT: A proxy pointing at a proxiable contract should not be considered proxiable itself, because this risks bricking a proxy that upgrades to it, by delegating to itself until out of gas. Thus it is critical that this function revert if invoked through a proxy. This is guaranteed by the `notDelegated` modifier."
      },
      "renounceOwnership()": {
        "details": "Leaves the contract without owner. It will not be possible to call `onlyOwner` functions anymore. Can only be called by the current owner. NOTE: Renouncing ownership will leave the contract without an owner, thereby removing any functionality that is only available to the owner."
      },
      "setAdmin(address)": {
        "details": "set admin address callable by owner"
      },
      "setMaxBetAmount(uint8[],uint256[])": {
        "details": "set maxBetAmount callable by admin"
      },
      "setMinBetAmount(uint8[],uint256[])": {
        "details": "set minBetAmount callable by admin"
      },
      "setOperator(address)": {
        "details": "set operator address callable by admin"
      },
      "setPayout(uint8[],uint8[])": {
        "details": "set payout rate callable by admin"
      },
      "setRandomNumUpdateAllowance(uint256)": {
        "details": "set random number update allowance callable by admin"
      },
      "setRandomNumberOracleAdd(address)": {
        "details": "set random number address callable by admin"
      },
      "transferOwnership(address)": {
        "details": "Transfers ownership of the contract to a new account (`newOwner`). Can only be called by the current owner."
      },
      "unpause()": {
        "details": "called by the admin to unpause, returns to normal state Reset genesis state. Once paused, the rounds would need to be kickstarted by genesis"
      },
      "upgradeTo(address)": {
        "details": "Upgrade the implementation of the proxy to `newImplementation`. Calls {_authorizeUpgrade}. Emits an {Upgraded} event."
      },
      "upgradeToAndCall(address,bytes)": {
        "details": "Upgrade the implementation of the proxy to `newImplementation`, and subsequently execute the function call encoded in `data`. Calls {_authorizeUpgrade}. Emits an {Upgraded} event."
      }
    },
    "version": 1
  },
  "userdoc": {
    "kind": "user",
    "methods": {},
    "version": 1
  }
}